:100000000C942A000C9447000C9447000C94470071
:100010000C9447000C9447000C9447000C94470044
:100020000C9447000C9447000C9447000C942C024D
:100030000C9447000C9447000C9447000C94470024
:100040000C9447000C9447000C9447000C94470014
:100050000C94470011241FBECFE5D8E0DEBFCDBF12
:1000600011E0A0E6B0E0E4E5FFE002C005900D92EB
:10007000AC3EB107D9F711E0ACEEB1E001C01D9282
:10008000AF3FB107E1F70E9470060C94A8070C94EB
:1000900000002CB321FDFDCF9FBB8EBBE09A8DB33A
:1000A00008952CB321FDFDCF9FBB8EBB6DBBE29AA3
:1000B000E19A08958A988B988C988D9882B38C6376
:1000C00082BBB89AB99ABA9ABB9A0895E0E088B30D
:1000D000807F88BBEE2321F488B38E6088BB0CC080
:1000E000E13021F488B38D6088BB0BC0E23021F48D
:1000F00088B38B6088BB05C0E33019F488B3876090
:1001000088BB80B382FD09C0F0E0EE0FFF1FEE0F49
:10011000FF1FE05AFF4F8081089580B383FD09C01F
:10012000F0E0EE0FFF1FEE0FFF1FE05AFF4F81813F
:10013000089580B384FD09C0F0E0EE0FFF1FEE0FBD
:10014000FF1FE05AFF4F8281089580B385FD09C0EB
:10015000F0E0EE0FFF1FEE0FFF1FE05AFF4F83810D
:1001600008958FE99FE00197F1F700C00000EF5F6D
:10017000E43009F0ACCF8FEF0895D998982F92957D
:100180009F7090FF02C0DB9A01C0DB98982F929578
:100190009695977090FF02C0DC9A01C0DC98982F6A
:1001A000929596959695937090FF02C0DD9A01C046
:1001B000DD98882314F4DE9A01C0DE98DA9AEFE91C
:1001C000FFE03197F1F700C00000DA98EFE9FFE0B7
:1001D0003197F1F700C0000080FF02C0DB9A01C038
:1001E000DB98982F969590FF02C0DC9A01C0DC98AE
:1001F000982F9695969590FF02C0DD9A01C0DD98E4
:1002000086958695869580FF02C0DE9A01C0DE98AD
:10021000DA9A8FE99FE00197F1F700C00000DA98C1
:10022000EFE9FFE03197F1F700C0000008958AB3CD
:100230008E678ABB83E00E94BD008FE79EE3019733
:10024000F1F700C0000083E00E94BD00AFE7BEE30D
:100250001197F1F700C0000083E00E94BD008FE716
:100260009EE30197F1F700C0000082E00E94BD000C
:1002700088E20E94BD0088E00E94BD0081E00E94EB
:10028000BD0086E00E94BD008FEF99EFA0E0815095
:100290009040A040E1F700C000008CE00E94BD004B
:1002A0000895D99A982F92959F7090FF02C0DB9A7B
:1002B00001C0DB98982F92959695977090FF02C099
:1002C000DC9A01C0DC98982F92959695969593703C
:1002D00090FF02C0DD9A01C0DD98882314F4DE9AF5
:1002E00001C0DE98DA9AEFE9FFE03197F1F700C03C
:1002F0000000DA98EFE9FFE03197F1F700C0000065
:1003000080FF02C0DB9A01C0DB98982F969590FF82
:1003100002C0DC9A01C0DC98982F9695969590FFC4
:1003200002C0DD9A01C0DD9886958695869580FF8E
:1003300002C0DE9A01C0DE98DA9A8FE99FE0019749
:10034000F1F700C00000DA98EFE9FFE03197F1F72C
:1003500000C0000008950F931F93CF938C01FC0100
:100360008081882351F0C0E00E945101CF5FF801E5
:10037000EC0FF11D80818823B9F7CF911F910F9168
:1003800008958F929F92AF92BF92EF92FF921F9328
:10039000CF93DF93CDB7DEB72A970FB6F894DEBFC1
:1003A0000FBECDBFDC01CB01AE014F5F5F4F2AE036
:1003B000FA0111922A95E9F70097A105B10521F4F8
:1003C00080E30E94510138C010E00F2EFAE08F2E1A
:1003D000F0E09F2EF0E0AF2EF0E0BF2EF02DE12EEA
:1003E000FF24E7FCF09421E030E02C0F3D1FE20EEB
:1003F000F31EBC01CD01A50194010E948607605D3A
:10040000F7016083822F932FA42FB52F1F5F0097D2
:10041000A105B10521F711507AF0E12FFF27E7FD83
:10042000F09521E030E02C0F3D1FE20FF31F80819B
:100430000E945101115088F72A960FB6F894DEBF3A
:100440000FBECDBFDF91CF911F91FF90EF90BF9076
:10045000AF909F908F9008951F920F920FB60F92BA
:1004600011248F939F938091F4018F5F8093F40107
:100470009091F5019F5F9093F5018F3FA1F48091DA
:10048000EC01882381F495B381E0892785BB109224
:10049000F4011092F5011092F1011092F20189B766
:1004A0008E7F89BF12C09F3F81F48091EC01813023
:1004B00061F4AA981092F4011092F5011092F101E2
:1004C0001092F20189B78E7F89BF9F918F910F9013
:1004D0000FBE0F901F90189581E00E94BD0080E72D
:1004E00090E00E94AB0188E80E94BD0088E790E0A0
:1004F0000E94AB0180EC0E94BD0080E890E00E9469
:10050000AB0188EC0E94BD0088E890E00E94AB013E
:100510000895A89A89B7816089BF0E946C0285E01E
:100520008093F101089581E00E94BD008FE890E082
:100530000E94AB0188E80E94BD0087E990E00E941C
:10054000AB0180EC0E94BD008CE990E00E94AB0101
:1005500088EC0E94BD0083EA90E00E94AB01089500
:1005600081E00E94BD0080E790E00E94AB0188E836
:100570000E94BD0088E790E00E94AB0180EC0E94E1
:10058000BD0080E890E00E94AB0188EC0E94BD00B5
:100590008FE890E00E94AB010895AA9A89B7816024
:1005A00089BF0E94B00285E08093F1010895CF9346
:1005B0000E946600C82F8F3F09F490C38E3409F45F
:1005C0008DC38091F101833009F48CC0843038F4FC
:1005D000813009F44BC0823008F066C00AC0853013
:1005E00009F4D1C1853008F49BC0863009F076C388
:1005F00002C3C03361F41092EC0181E08093F101F9
:100600000E94BD008AEA90E00E94AB0125C0C13380
:1006100061F481E08093EC018093F1010E94BD00C0
:1006200089EB90E00E94AB0117C081E00E94BD0001
:1006300088EC90E00E94AB018FEF93ECA9E0815031
:100640009040A040E1F700C0000081E00E94BD00A2
:1006500084ED90E00E94AB018FEF93ECA9E0815014
:100660009040A040E1F700C0000038C383EC0E9436
:10067000BD008C2F0E9451018FEF91EEA4E08150BC
:100680009040A040E1F700C0000083EC0E94BD0054
:100690008AE20E945101C053C093FD018091F10193
:1006A0008F5F8093F1011AC384EC0E94BD008C2FF0
:1006B0000E9451018FEF91EEA4E081509040A04044
:1006C000E1F700C0000084EC0E94BD008AE20E94B5
:1006D0005101C053C093FA018091F1018F5F809363
:1006E000F101FCC285EC0E94BD008C2F0E945101DB
:1006F0008FEF91EEA4E081509040A040E1F700C060
:10070000000085EC0E94BD008AE20E945101C053A6
:10071000C093FE018091F1018F5F8093F101DEC2F1
:1007200086EC0E94BD008C2F0E9451018FEF91EE4C
:10073000A4E081509040A040E1F700C0000086ECAA
:100740000E94BD008AE20E94510181E00E94BD002A
:10075000C053C093F9016091FD018091EA016817CF
:1007600011F59091FA018091E9019817E1F49091C7
:10077000FE018091E8019817B1F48091E701C81754
:1007800091F48091EC01882371F48091F001882329
:1007900051F40E9489021092FB018EE190E060E02A
:1007A0000E9451009BC28091F801681711F5909149
:1007B000FA018091FC019817E1F49091FE0180917B
:1007C000F7019817B1F48091F601C81791F4809160
:1007D000EC01813071F48091F001882351F40E9482
:1007E000CD021092FB018EE190E060E00E9451008A
:1007F00075C28091F001813031F58091EC01882340
:1008000009F05AC084E190E00E94510085E190E037
:100810006091FA010E94510086E190E06091FE0132
:100820000E94510087E190E06091F9010E9451001F
:1008300088E190E06FE00E9451008091F0018F5FAD
:100840008093F0014BC28330B9F58091EC01813087
:1008500099F589E190E00E9451008AE190E0609171
:10086000FA010E9451008BE190E06091FE010E942C
:1008700051008CE190E06091F9010E9451008DE1FE
:1008800090E06FE00E9451008091F0018F5F8093B3
:10089000F00181E00E94BD0085EE90E00E94AB0176
:1008A0008FEF99E6A8E181509040A040E1F700C0A9
:1008B00000001092F20112C28091FB018F5F8093C1
:1008C000FB0181E00E94BD0084EF90E00E94AB013B
:1008D0008FEF92E5A7E081509040A040E1F700C083
:1008E000000081E00E94BD008091FB0163E070E0A8
:1008F000681B7109882777FD8095982F0E94C10198
:1009000083E091E00E94AB018EE190E06091FB01F9
:100910000E9451008FEF91EEA4E081509040A040E2
:10092000E1F700C0000081E08093F1018091FB01BC
:10093000833009F0D3C1AC9A81E00E94BD008FE002
:1009400091E00E94AB0180EC0E94BD008FE191E03C
:100950000E94AB018FEF97EAA1E681509040A04042
:10096000E1F700C00000AC9881E00E94BD008AE27F
:1009700091E00E94AB011092FB018EE190E060E0FB
:100980000E945100ABC1C43309F463C0C53364F4A1
:10099000C23369F1C3330CF043C0CF3F09F49EC1A9
:1009A000C13309F025C10AC0C63309F4D3C0C63328
:1009B0000CF494C0C73309F01BC108C181E00E9448
:1009C000BD008BE391E00E94AB0180EC0E94BD0072
:1009D00082E491E00E94AB0181E38093F301C4982B
:1009E0000E947107C49A86E08093F10177C181E08B
:1009F0000E94BD0084E591E00E94AB0180EC0E9462
:100A0000BD0082E491E00E94AB0182E38093F30198
:100A1000C4980E947107C49A86E08093F1015EC178
:100A200081E00E94BD008BE591E00E94AB0180EC6B
:100A30000E94BD0082E491E00E94AB0183E38093B9
:100A4000F301C4980E947107C49A86E08093F10173
:100A500045C184E38093F3018091EC018130B1F4CE
:100A60000E94BD0082E691E00E94AB0180EC0E94F2
:100A7000BD0082E491E00E94AB01C49884E30E942F
:100A80007107C49A86E08093F10128C1882309F098
:100A900025C18091EF01882331F40E94930281E007
:100AA0008093EF011BC1813009F018C10E94BD0085
:100AB00082E691E00E94AB0180EC0E94BD0082E4DE
:100AC00091E00E94AB01C49884E30E947107C49A2C
:100AD00086E08093F1011092EF0100C185E38093DD
:100AE000F3018091EC018823E9F48091EF018130DA
:100AF00009F0F4C00E94BD0089E691E00E94AB01BC
:100B000080EC0E94BD0082E491E00E94AB01C49899
:100B100085E30E947107C49A1092EF0186E08093EA
:100B2000F101DCC0813009F0D9C00E94BD0088EC21
:100B300090E00E94AB018FEF91EEA4E081509040D5
:100B4000A040E1F700C0000081E00E94BD000E94CB
:100B5000B002C4C086E38093F3018091EC01882346
:100B6000E9F48091EF01813009F0B8C00E94BD0026
:100B70008CE691E00E94AB0180EC0E94BD0082E413
:100B800091E00E94AB01C49886E30E947107C49A69
:100B90001092EF0186E08093F101A0C0813009F04E
:100BA0009DC00E94BD0088EC90E00E94AB018FEFD9
:100BB00091EEA4E081509040A040E1F700C0000019
:100BC00081E00E94BD000E94B00288C087E380934C
:100BD000F3018091EC01882309F080C08091EF013E
:100BE000813009F07BC00E946C021092EF0176C048
:100BF0000E946C0273C0C23349F1C33309F449C087
:100C0000C13309F05DC081E00E94BD0081E791E041
:100C10000E94AB0180EC0E94BD008FE791E00E9432
:100C2000AB01C49881E30E947107C49A8FEF91EEE3
:100C3000A4E081509040A040E1F700C00000C498BB
:100C40008091F3010E947107C49A48C081E00E941C
:100C5000BD008DE891E00E94AB0180EC0E94BD00D8
:100C60008BE991E00E94AB01C49882E30E94710776
:100C7000C49A8FEF91EEA4E081509040A040E1F73C
:100C800000C00000C4988091F3010E947107C49ACB
:100C900025C0C49880E30E947107C49A8091EC013A
:100CA000882331F40E946C0285E08093F10116C024
:100CB0008130A1F40E94B00285E08093F1010EC062
:100CC00081E00E94BD0088EC90E00E94AB0180ECC6
:100CD0000E94BD0082E491E00E94AB01CF91089593
:100CE00088E190E00E9449008093EE018DE190E060
:100CF0000E9449008093ED0184E190E00E94490048
:100D00008093EA0185E190E00E9449008093E90127
:100D100086E190E00E9449008093E80187E190E03D
:100D20000E9449008093E70189E190E00E94490018
:100D30008093F8018AE190E00E9449008093FC01D1
:100D40008BE190E00E9449008093F7018CE190E0F4
:100D50000E9449008093F601A09AA29AA49A0E9448
:100D600017010E945A000E9468070E9479078EE1CD
:100D700090E00E9449008093FB010F2EFFE0EF2ED0
:100D8000F1E0FF2EF02D0F2EFFE1CF2EF1E0DF2E50
:100D9000F02D0F2EFAE2AF2EF1E0BF2EF02D0F2E28
:100DA000F9EA8F2EF1E09F2EF02D0F2EF3E05F2E4B
:100DB000F02D0F2EF9EB6F2EF1E07F2EF02DC9EC08
:100DC000D1E007ED11E08091FB01833021F5AC9A71
:100DD00081E00E94BD00C7010E94AB0180EC0E942F
:100DE000BD00C6010E94AB018FEF97EAA1E68150DA
:100DF0009040A040E1F700C00000AC9881E00E9464
:100E0000BD00C5010E94AB011092FB018EE190E094
:100E100060E00E9451008091EE018F3FE1F48091EB
:100E2000F0018823C1F481E00E94BD00C4010E944A
:100E3000AB0181E08093F0018093F1011092EC010D
:100E40008093F2018FEF93ECA9E081509040A04095
:100E5000E1F700C000008091ED018F3FE1F4809147
:100E6000F0018230C1F45092F00181E00E94BD0097
:100E7000C3010E94AB0181E08093F1018093EC01FA
:100E80008093F2018FEF93ECA9E081509040A04055
:100E9000E1F700C000008091F2018823B1F481E005
:100EA0000E94BD00CE010E94AB0180EC0E94BD00FB
:100EB000C8010E94AB018091F2018F5F8093F20123
:100EC000C49880E30E947107C49A0E94D7027BCF26
:100ED00087B3806B87BB80E58DB90895BE9A6E9A03
:100EE00008958FB9779BFECF0895779BFECF8FB182
:100EF000089585E883BF789408958DE883BF88ECD2
:100F00008CBF89B7826089BF78940895A1E21A2EB8
:100F1000AA1BBB1BFD010DC0AA1FBB1FEE1FFF1F9D
:100F2000A217B307E407F50720F0A21BB30BE40BED
:100F3000F50B661F771F881F991F1A9469F7609534
:100F40007095809590959B01AC01BD01CF010895EE
:040F5000F894FFCF43
:100F54003738394E3435364E3132334E4E304E4EAC
:100F6400313E526F6F6D3100323E526F6F6D320001
:100F7400333E526F6F6D3300343E4D6F72650034F3
:100F84003E526F6F6D3400353E545600363E434F2B
:100F94004E4400373E6261636B0041646D696E20AC
:100FA40070617373776F7264004775657374207032
:100FB400617373776F72640077726F6E6720656E0A
:100FC40074727900303E61646D696E26313E6775D6
:100FD40065737420004E6F77205265737461727468
:100FE400203A290057726F6E672070617373776FB0
:100FF400726400205472696573206C6566740079AC
:101004006F752061726520626C6F636B6564006646
:101014006F722032302073656300456E74657220F0
:101024007269676874207061737300526F6F6D200A
:101034003100313E6F6E20323E6F666620333E6271
:1010440061636B00526F6F6D203200526F6F6D20C1
:101054003300526F6F6D203400545600434F4E449A
:10106400007374617475733A2020206F6E2000320F
:101074003E6F66662020333E6261636B0073746169
:101084007475733A20206F66662000313E6F6E20BF
:101094002020333E6261636B00456E746572206E7E
:1010A40065772061646D696E00456E746572206EAB
:1010B40065772067756573740073656C6563742068
:1010C4004D6F64653A2000303E41646D696E203195
:0C10D4003E4775657374000403020100C0
:00000001FF
