S0190000536D6172745F686F6D655F6D61737465722E7372656311
S11300000C942A000C9447000C9447000C9447006D
S11300100C9447000C9447000C9447000C94470040
S11300200C9447000C9447000C9447000C942C0249
S11300300C9447000C9447000C9447000C94470020
S11300400C9447000C9447000C9447000C94470010
S11300500C94470011241FBECFE5D8E0DEBFCDBF0E
S113006012E0A0E6B0E0E6E2F0E102C005900D92F5
S1130070A031B107D9F712E0A0E1B2E001C01D92AE
S1130080A732B107E1F70E949A060C9411080C9468
S113009000002CB321FDFDCF9FBB8EBBE09A8DB336
S11300A008952CB321FDFDCF9FBB8EBB6DBBE29A9F
S11300B0E19A08958A988B988C988D9882B38C6372
S11300C082BBB89AB99ABA9ABB9A0895E0E088B309
S11300D0807F88BBEE2321F488B38E6088BB0CC07C
S11300E0E13021F488B38D6088BB0BC0E23021F489
S11300F088B38B6088BB05C0E33019F488B387608C
S113010088BB80B382FD09C0F0E0EE0FFF1FEE0F45
S1130110FF1FE05AFF4F8081089580B383FD09C01B
S1130120F0E0EE0FFF1FEE0FFF1FE05AFF4F81813B
S1130130089580B384FD09C0F0E0EE0FFF1FEE0FB9
S1130140FF1FE05AFF4F8281089580B385FD09C0E7
S1130150F0E0EE0FFF1FEE0FFF1FE05AFF4F838109
S113016008958FE99FE00197F1F700C00000EF5F69
S1130170E43009F0ACCF8FEF0895D998982F929579
S11301809F7090FF02C0DB9A01C0DB98982F929574
S11301909695977090FF02C0DC9A01C0DC98982F66
S11301A0929596959695937090FF02C0DD9A01C042
S11301B0DD98882314F4DE9A01C0DE98DA9AEFE918
S11301C0FFE03197F1F700C00000DA98EFE9FFE0B3
S11301D03197F1F700C0000080FF02C0DB9A01C034
S11301E0DB98982F969590FF02C0DC9A01C0DC98AA
S11301F0982F9695969590FF02C0DD9A01C0DD98E0
S113020086958695869580FF02C0DE9A01C0DE98A9
S1130210DA9A8FE99FE00197F1F700C00000DA98BD
S1130220EFE9FFE03197F1F700C0000008958AB3C9
S11302308E678ABB83E00E94BD008FE79EE301972F
S1130240F1F700C0000083E00E94BD00AFE7BEE309
S11302501197F1F700C0000083E00E94BD008FE712
S11302609EE30197F1F700C0000082E00E94BD0008
S113027088E20E94BD0088E00E94BD0081E00E94E7
S1130280BD0086E00E94BD008FEF99EFA0E0815091
S11302909040A040E1F700C000008CE00E94BD0047
S11302A00895D99A982F92959F7090FF02C0DB9A77
S11302B001C0DB98982F92959695977090FF02C095
S11302C0DC9A01C0DC98982F929596959695937038
S11302D090FF02C0DD9A01C0DD98882314F4DE9AF1
S11302E001C0DE98DA9AEFE9FFE03197F1F700C038
S11302F00000DA98EFE9FFE03197F1F700C0000061
S113030080FF02C0DB9A01C0DB98982F969590FF7E
S113031002C0DC9A01C0DC98982F9695969590FFC0
S113032002C0DD9A01C0DD9886958695869580FF8A
S113033002C0DE9A01C0DE98DA9A8FE99FE0019745
S1130340F1F700C00000DA98EFE9FFE03197F1F728
S113035000C0000008950F931F93CF938C01FC01FC
S11303608081882351F0C0E00E945101CF5FF801E1
S1130370EC0FF11D80818823B9F7CF911F910F9164
S113038008958F929F92AF92BF92EF92FF921F9324
S1130390CF93DF93CDB7DEB72A970FB6F894DEBFBD
S11303A00FBECDBFDC01CB01AE014F5F5F4F2AE032
S11303B0FA0111922A95E9F70097A105B10521F4F4
S11303C080E30E94510138C010E00F2EFAE08F2E16
S11303D0F0E09F2EF0E0AF2EF0E0BF2EF02DE12EE6
S11303E0FF24E7FCF09421E030E02C0F3D1FE20EE7
S11303F0F31EBC01CD01A50194010E94EF07605DCD
S1130400F7016083822F932FA42FB52F1F5F0097CE
S1130410A105B10521F711507AF0E12FFF27E7FD7F
S1130420F09521E030E02C0F3D1FE20FF31F808197
S11304300E945101115088F72A960FB6F894DEBF36
S11304400FBECDBFDF91CF911F91FF90EF90BF9072
S1130450AF909F908F9008951F920F920FB60F92B6
S113046011248F939F93809118028F5F80931802B9
S1130470909119029F5F90931902853FA1F4809196
S11304801002882381F495B381E0892785BB1092FB
S1130490180210921902109215021092160289B7CE
S11304A08E7F89BF12C0953F81F480911002813004
S11304B061F4AA981092180210921902109215026F
S11304C01092160289B78E7F89BF9F918F910F90EA
S11304D00FBE0F901F90189581E00E94BD0080E729
S11304E090E00E94AB0188E80E94BD0088E790E09C
S11304F00E94AB0180EC0E94BD0080E890E00E9465
S1130500AB0188EC0E94BD0088E890E00E94AB013A
S11305100895A89A89B7816089BF0E946C0285E01A
S113052080931502089581E00E94BD008FE890E059
S11305300E94AB0188E80E94BD0087E990E00E9418
S1130540AB0180EC0E94BD008CE990E00E94AB01FD
S113055088EC0E94BD0083EA90E00E94AB010895FC
S113056081E00E94BD0080E790E00E94AB0188E832
S11305700E94BD0088E790E00E94AB0180EC0E94DD
S1130580BD0080E890E00E94AB0188EC0E94BD00B1
S11305908FE890E00E94AB010895AA9A89B7816020
S11305A089BF0E94B00285E0809315020895CF931D
S11305B00E946600C82F8F3F09F4BAC38E3409F431
S11305C0B7C380911502833009F493C0843038F4A2
S11305D0813009F452C0823008F06DC00AC0853001
S11305E009F401C2853008F4A2C0863009F0A0C322
S11305F02CC3C03361F41092100281E08093150281
S11306000E94BD008AEA90E00E94AB012CC0C13375
S113061061F481E080931002809315020E94BD0072
S113062089EB90E00E94AB011EC081E00E94BD00F6
S113063088EC90E00E94AB018FEF93ECA9E081502D
S11306409040A040E1F700C0000081E00E94BD009E
S113065084ED90E00E94AB0180EC0E94BD0083EE2B
S113066090E00E94AB018FEF93ECA9E081509040A1
S1130670A040E1F700C000005BC383EC0E94BD0012
S11306808C2F0E9451018FEF91EEA4E08150904095
S1130690A040E1F700C0000083EC0E94BD008AE2A4
S11306A00E945101C053C0932302809115028F5FB1
S11306B0809315023DC384EC0E94BD008C2F0E94E0
S11306C051018FEF91EEA4E081509040A040E1F7FA
S11306D000C0000084EC0E94BD008AE20E94510127
S11306E0C053C0931E02809115028F5F8093150240
S11306F01FC385EC0E94BD008C2F0E9451018FEF17
S113070091EEA4E081509040A040E1F700C00000C9
S113071085EC0E94BD008AE20E945101C053C0933F
S11307202502809115028F5F8093150201C386EC28
S11307300E94BD008C2F0E9451018FEF91EEA4E026
S113074081509040A040E1F700C0000086EC0E9478
S1130750BD008AE20E94510181E00E94BD00C053A5
S1130760C0931D026091230280911F02681711F546
S113077090911E02809124029817E1F49091250231
S1130780809121029817B1F480912602C81791F440
S113079080911002882371F480911402882351F40B
S11307A00E948902109220028EE190E060E00E9493
S11307B05100BEC280911C02681711F590911E026F
S11307C0809122029817E1F49091250280911B02F6
S11307D09817B1F480911A02C81791F4809110020D
S11307E0813071F480911402882351F40E94CD0267
S11307F0109220028EE190E060E00E94510098C2C5
S113080080911402813031F580911002882309F01F
S113081083C084E190E00E94510085E190E0609102
S11308201E020E94510086E190E0609125020E9420
S1130830510087E190E060911D020E94510088E11F
S113084090E06FE00E945100809114028F5F8093CA
S113085014026EC2833009F05FC0809110028130AF
S113086009F05AC089E190E00E9451008AE190E0C9
S113087060911E020E9451008BE190E0609125027C
S11308800E9451008CE190E060911D020E94510091
S11308908DE190E06FE00E945100809114028F5F1F
S11308A08093140281E00E94BD0084E190E00E94E4
S11308B0490080931F0285E190E00E9449008093E3
S11308C0240286E190E00E9449008093210287E19E
S11308D090E00E9449008093260289E190E00E9402
S11308E0490080931C028AE190E00E9449008093B1
S11308F022028BE190E00E94490080931B028CE16C
S113090090E00E94490080931A02109216021092FD
S11309101402109215020CC2809120028F5F809302
S1130920200281E00E94BD0084EF90E00E94AB01B0
S11309308FEF92E5A7E081509040A040E1F700C01E
S1130940000081E00E94BD008091200263E070E01D
S1130950681B7109882777FD8095982F0E94C10133
S113096083E091E00E94AB018EE190E0609120026F
S11309700E9451008FEF91EEA4E081509040A0407E
S1130980E1F700C0000081E080931502809120020D
S1130990833009F0CDC1AC9A81E00E94BD008FE0A4
S11309A091E00E94AB0180EC0E94BD008FE191E0D8
S11309B00E94AB018FEF97EAA1E681509040A040DE
S11309C0E1F700C00000AC9881E00E94BD008AE21B
S11309D091E00E94AB01109220028EE190E060E071
S11309E00E945100A5C1C43309F472C0C53364F434
S11309F0C23391F1C3330CF04DC0CF3F09F498C119
S1130A00C13309F014C10AC0C63309F4D2C0C633D5
S1130A100CF4A3C0C73309F00AC1F7C080911302D4
S1130A20882309F085C181E00E94BD008BE391E039
S1130A300E94AB0180EC0E94BD0082E491E00E9420
S1130A40AB0181E380931702C4980E94DA07C49A29
S1130A5086E0809315026CC180911302882309F00B
S1130A6067C181E00E94BD0084E591E00E94AB0172
S1130A7080EC0E94BD0082E491E00E94AB0182E31D
S1130A8080931702C4980E94DA07C49A86E0809380
S1130A9015024EC180911302882309F049C181E0F7
S1130AA00E94BD008BE591E00E94AB0180EC0E94A6
S1130AB0BD0082E491E00E94AB0183E380931702BE
S1130AC0C4980E94DA07C49A86E08093150230C164
S1130AD084E380931702809110028130B1F40E9464
S1130AE0BD0082E691E00E94AB0180EC0E94BD0053
S1130AF082E491E00E94AB01C49884E30E94DA0787
S1130B00C49A86E08093150213C1882309F010C1AA
S1130B1080911302882331F40E94930281E0809330
S1130B20130206C1813009F003C10E94BD0082E6B0
S1130B3091E00E94AB0180EC0E94BD0082E491E050
S1130B400E94AB01C49884E30E94DA07C49A86E049
S1130B508093150210921302EBC085E38093170271
S1130B60809110028823E9F480911302813009F006
S1130B70DFC00E94BD0089E691E00E94AB0180ECD9
S1130B800E94BD0082E491E00E94AB01C49885E319
S1130B900E94DA07C49A1092130286E08093150229
S1130BA0C7C0813009F0C4C00E94BD000E94B002D9
S1130BB0BFC086E380931702809110028823E9F472
S1130BC080911302813009F0B3C00E94BD008CE60D
S1130BD091E00E94AB0180EC0E94BD0082E491E0B0
S1130BE00E94AB01C49886E30E94DA07C49A10926B
S1130BF0130286E0809315029BC0813009F098C0EF
S1130C000E94BD000E94B00293C087E38093170244
S1130C1080911002882309F08BC0809113028130E7
S1130C2009F086C00E946C021092130281C0809168
S1130C301002882319F40E946C0204C0813011F45C
S1130C400E94B0021092130273C0C23349F1C3333D
S1130C5009F449C0C13309F05DC081E00E94BD00C0
S1130C6081E791E00E94AB0180EC0E94BD008FE718
S1130C7091E00E94AB01C49881E30E94DA07C49A10
S1130C808FEF91EEA4E081509040A040E1F700C0C6
S1130C900000C498809117020E94DA07C49A48C0E1
S1130CA081E00E94BD008DE891E00E94AB0180ECE0
S1130CB00E94BD008BE991E00E94AB01C49882E3DD
S1130CC00E94DA07C49A8FEF91EEA4E0815090401D
S1130CD0A040E1F700C00000C498809117020E9470
S1130CE0DA07C49A25C0C49880E30E94DA07C49A3C
S1130CF080911002882331F40E946C0285E0809375
S1130D00150216C08130A1F40E94B00285E08093E0
S1130D1015020EC081E00E94BD0088EC90E00E94A4
S1130D20AB0180EC0E94BD0082E491E00E94AB0123
S1130D30CF91089588E190E00E94490080931202C7
S1130D408DE190E00E9449008093110284E190E0DB
S1130D500E94490080931F0285E190E00E944900AF
S1130D608093240286E190E00E944900809321024E
S1130D7087E190E00E9449008093260289E190E097
S1130D800E94490080931C028AE190E00E9449007D
S1130D90809322028BE190E00E94490080931B0221
S1130DA08CE190E00E94490080931A02A09AA29AD2
S1130DB0A49A0E9417010E945A000E94D1070E941F
S1130DC0E2078EE190E00E94490080932002809126
S1130DD012028F3039F4809111028F3F19F482E0AE
S1130DE0809314020F2EFFE0EF2EF1E0FF2EF02D82
S1130DF00F2EFFE1CF2EF1E0DF2EF02D0F2EFAE2C1
S1130E00AF2EF1E0BF2EF02D0F2EF9EA8F2EF1E078
S1130E109F2EF02D0F2EFAEB6F2EF1E07F2EF02D8A
S1130E200F2EFFEB2F2EF1E03F2EF02D0F2EFFE0C3
S1130E305F2EF02D0F2EF3E04F2EF02DC1EFD1E0F9
S1130E400FEF11E080912002833021F5AC9A81E00C
S1130E500E94BD00C7010E94AB0180EC0E94BD004E
S1130E60C6010E94AB018FEF97EAA1E68150904042
S1130E70A040E1F700C00000AC9881E00E94BD00F2
S1130E80C5010E94AB01109220028EE190E060E067
S1130E900E945100809112028F3F09F044C080915A
S1130EA01402882309F03FC081E00E94BD00C40100
S1130EB00E94AB0180EC0E94BD00C3010E94AB0103
S1130EC08FEF99E6A8E181509040A040E1F700C07F
S1130ED0000081E00E94BD00C1010E94AB018FEFC0
S1130EE095EAAEE081509040A040E1F700C00000D8
S1130EF081E00E94BD008FEC91E00E94AB0181E093
S1130F0080931402809315021092100280931602AB
S1130F10509212028FEF93ECA9E081509040A040D0
S1130F20E1F700C00000809111028F3FE9F4809145
S1130F3014028230C9F44092140281E00E94BD0080
S1130F4080EE91E00E94AB0181E0809315028093D2
S1130F501002809316028FEF93ECA9E08150904029
S1130F60A040E1F700C00000809116028823B1F48C
S1130F7081E00E94BD00CE010E94AB0180EC0E9482
S1130F80BD00C8010E94AB01809116028F5F80935F
S1130F901602C49880E30E94DA07C49A0E94D7021A
S1130FA051CF87B3806B87BB80E58DB90895BE9A16
S1130FB06E9A08958FB9779BFECF0895779BFECFE5
S1130FC08FB1089585E883BF789408958DE883BF31
S1130FD088EC8CBF89B7826089BF78940895A1E2B8
S1130FE01A2EAA1BBB1BFD010DC0AA1FBB1FEE1F9F
S1130FF0FF1FA217B307E407F50720F0A21BB30BEA
S1131000E40BF50B661F771F881F991F1A9469F765
S113101060957095809590959B01AC01BD01CF01C1
S10910200895F894FFCFCF
S11310263738394E3435364E3132334E4E304E4ED5
S1131036313E526F6F6D3100323E526F6F6D32002A
S1131046333E526F6F6D3300343E4D6F726500341C
S11310563E526F6F6D3400353E545600363E434F54
S11310664E4400373E6261636B0041646D696E20D5
S113107670617373776F726400477565737420705B
S1131086617373776F72640077726F6E6720656E33
S11310967472790053656C656374204D6F646520C2
S11310A63A2000303E41646D696E2020313E47751A
S11310B66573740057726F6E672070617373776F10
S11310C6726400205472696573206C6566740079D5
S11310D66F752061726520626C6F636B6564006670
S11310E66F722032302073656300456E746572201A
S11310F67269676874207061737300526F6F6D2034
S11311063100313E6F6E20323E6F666620333E629A
S113111661636B00526F6F6D203200526F6F6D20EA
S11311263300526F6F6D203400545600434F4E44C3
S1131136007374617475733A2020206F6E20003238
S11311463E6F66662020333E6261636B0073746192
S11311567475733A20206F66662000313E6F6E20E8
S11311662020333E6261636B0057656C636F6D6567
S113117620746F20536D61727400486F6D6500555D
S113118672206669727374206C6F6720696E0045FD
S11311966E7465722041646D696E205061737300CC
S11311A6456E746572204775657374207061737338
S11311B60073656C656374204D6F64653A20003076
S11311C63E41646D696E20313E4775657374000057
S9030000FC
