S0190000536D6172745F686F6D655F6D61737465722E7372656311
S11300000C942A000C9447000C9447000C9447006D
S11300100C9447000C9447000C9447000C94470040
S11300200C9447000C9447000C9447000C942C0249
S11300300C9447000C9447000C9447000C94470020
S11300400C9447000C9447000C9447000C94470010
S11300500C94470011241FBECFE5D8E0DEBFCDBF0E
S113006011E0A0E6B0E0E6ECFBE002C005900D92E2
S1130070A035B107D9F711E0A0E5B1E001C01D92A8
S1130080A236B107E1F70E94B6040C94E1050C9482
S113009000002CB321FDFDCF9FBB8EBBE09A8DB336
S11300A008952CB321FDFDCF9FBB8EBB6DBBE29A9F
S11300B0E19A08958A988B988C988D9882B38C6372
S11300C082BBB89AB99ABA9ABB9A0895E0E088B309
S11300D0807F88BBEE2321F488B38E6088BB0CC07C
S11300E0E13021F488B38D6088BB0BC0E23021F489
S11300F088B38B6088BB05C0E33019F488B387608C
S113010088BB80B382FD09C0F0E0EE0FFF1FEE0F45
S1130110FF1FE05AFF4F8081089580B383FD09C01B
S1130120F0E0EE0FFF1FEE0FFF1FE05AFF4F81813B
S1130130089580B384FD09C0F0E0EE0FFF1FEE0FB9
S1130140FF1FE05AFF4F8281089580B385FD09C0E7
S1130150F0E0EE0FFF1FEE0FFF1FE05AFF4F838109
S113016008958FE99FE00197F1F700C00000EF5F69
S1130170E43009F0ACCF8FEF0895D998982F929579
S11301809F7090FF02C0DB9A01C0DB98982F929574
S11301909695977090FF02C0DC9A01C0DC98982F66
S11301A0929596959695937090FF02C0DD9A01C042
S11301B0DD98882314F4DE9A01C0DE98DA9AEFE918
S11301C0FFE03197F1F700C00000DA98EFE9FFE0B3
S11301D03197F1F700C0000080FF02C0DB9A01C034
S11301E0DB98982F969590FF02C0DC9A01C0DC98AA
S11301F0982F9695969590FF02C0DD9A01C0DD98E0
S113020086958695869580FF02C0DE9A01C0DE98A9
S1130210DA9A8FE99FE00197F1F700C00000DA98BD
S1130220EFE9FFE03197F1F700C0000008958AB3C9
S11302308E678ABB83E00E94BD008FE79EE301972F
S1130240F1F700C0000083E00E94BD00AFE7BEE309
S11302501197F1F700C0000083E00E94BD008FE712
S11302609EE30197F1F700C0000082E00E94BD0008
S113027088E20E94BD0088E00E94BD0081E00E94E7
S1130280BD0086E00E94BD008FEF99EFA0E0815091
S11302909040A040E1F700C000008CE00E94BD0047
S11302A00895D99A982F92959F7090FF02C0DB9A77
S11302B001C0DB98982F92959695977090FF02C095
S11302C0DC9A01C0DC98982F929596959695937038
S11302D090FF02C0DD9A01C0DD98882314F4DE9AF1
S11302E001C0DE98DA9AEFE9FFE03197F1F700C038
S11302F00000DA98EFE9FFE03197F1F700C0000061
S113030080FF02C0DB9A01C0DB98982F969590FF7E
S113031002C0DC9A01C0DC98982F9695969590FFC0
S113032002C0DD9A01C0DD9886958695869580FF8A
S113033002C0DE9A01C0DE98DA9A8FE99FE0019745
S1130340F1F700C00000DA98EFE9FFE03197F1F728
S113035000C0000008950F931F93CF938C01FC01FC
S11303608081882351F0C0E00E945101CF5FF801E1
S1130370EC0FF11D80818823B9F7CF911F910F9164
S113038008958F929F92AF92BF92EF92FF921F9324
S1130390CF93DF93CDB7DEB72A970FB6F894DEBFBD
S11303A00FBECDBFDC01CB01AE014F5F5F4F2AE032
S11303B0FA0111922A95E9F70097A105B10521F4F4
S11303C080E30E94510138C010E00F2EFAE08F2E16
S11303D0F0E09F2EF0E0AF2EF0E0BF2EF02DE12EE6
S11303E0FF24E7FCF09421E030E02C0F3D1FE20EE7
S11303F0F31EBC01CD01A50194010E94BF05605DFF
S1130400F7016083822F932FA42FB52F1F5F0097CE
S1130410A105B10521F711507AF0E12FFF27E7FD7F
S1130420F09521E030E02C0F3D1FE20FF31F808197
S11304300E945101115088F72A960FB6F894DEBF36
S11304400FBECDBFDF91CF911F91FF90EF90BF9072
S1130450AF909F908F9008951F920F920FB60F92B6
S113046011248F939F93809157018F5F809357013D
S1130470909158019F5F909358018F3FA1F4809110
S11304805001882381F495B381E0892785BB1092BC
S1130490570110925801109255011092560189B7D4
S11304A08E7F89BF12C09F3F81F4809150018130BB
S11304B061F4AA98109257011092580110925501B4
S11304C01092560189B78E7F89BF9F918F910F90AB
S11304D00FBE0F901F90189581E00E94BD0080E729
S11304E090E00E94AB0188E80E94BD0088E790E09C
S11304F00E94AB0180EC0E94BD0080E890E00E9465
S1130500AB0188EC0E94BD0088E890E00E94AB013A
S11305100895A89A89B7816089BF0E946C0285E01A
S113052080935501089581E00E94BD008FE890E01A
S11305300E94AB0188E80E94BD0087E990E00E9418
S1130540AB0180EC0E94BD008CE990E00E94AB01FD
S113055088EC0E94BD0083EA90E00E94AB010895FC
S113056081E00E94BD0080E790E00E94AB0188E832
S11305700E94BD0088E790E00E94AB0180EC0E94DD
S1130580BD0080E890E00E94AB0188EC0E94BD00B1
S11305908FE890E00E94AB010895AA9A89B7816020
S11305A089BF0E94B00285E0809355010895CF93DE
S11305B00E946600C82F8F3F09F4D6C18E3409F417
S11305C0D3C180915501823009F47FC0833030F467
S11305D0882359F0813009F0C7C159C0833009F428
S11305E092C0843009F0C0C1ACC0C033B1F41092E1
S11305F05E018EE190E060E00E9451001092500193
S1130600809155018F5F8093550181E00E94BD0068
S11306108AEA90E00E94AB0130C0C133B9F4109271
S11306205E018EE190E060E00E94510081E08093E1
S11306305001809155018F5F8093550181E00E94A4
S1130640BD0089EB90E00E94AB0117C081E00E94DD
S1130650BD0088EC90E00E94AB018FEF93ECA9E021
S113066081509040A040E1F700C0000081E00E946A
S1130670BD0084ED90E00E94AB018FEF93ECA9E004
S113068081509040A040E1F700C000006DC183ECB0
S11306900E94BD008C2F0E9451018FEF91EEA4E0C7
S11306A081509040A040E1F700C0000083EC0E941C
S11306B0BD008AE20E945101C053C0936001809141
S11306C055018F5F809355014FC184EC0E94BD009A
S11306D08C2F0E9451018FEF91EEA4E08150904045
S11306E0A040E1F700C0000084EC0E94BD008AE253
S11306F00E945101C053C0935D01809155018F5FE9
S11307008093550131C185EC0E94BD008C2F0E945D
S113071051018FEF91EEA4E081509040A040E1F7A9
S113072000C0000085EC0E94BD008AE20E945101D5
S1130730C053C0936101809155018F5F809355012F
S113074013C186EC0E94BD008C2F0E9451018FEFD3
S113075091EEA4E081509040A040E1F700C0000079
S113076086EC0E94BD008AE20E94510181E00E9451
S1130770BD00C053C0935C016091600180914F0142
S11307806817D9F490915D0180914E019817A9F4EE
S11307909091610180914D01981779F480914C01F9
S11307A0C81759F480915001882339F48091540179
S11307B0882319F40E948902D7C080915B016817CD
S11307C0D9F490915D0180915F019817A9F49091FB
S11307D0610180915A01981779F480915901C817E1
S11307E059F480915001813039F480915401882367
S11307F019F40E94CD02B8C080915401813031F5C2
S113080080915001882309F04AC084E190E00E945D
S1130810510085E190E060915D010E94510086E104
S113082090E0609161010E94510087E190E0609145
S11308305C010E94510088E190E06FE00E94510049
S1130840809154018F5F809354018EC0833039F5B9
S113085080915001813019F589E190E00E945100A6
S11308608AE190E060915D010E9451008BE190E08B
S1130870609161010E9451008CE190E060915C0103
S11308800E9451008DE190E06FE00E945100809140
S113089054018F5F809354011092560165C080917A
S11308A05E018F5F80935E0181E00E94BD0085EE52
S11308B090E00E94AB018FEF95EAAEE0815090404A
S11308C0A040E1F700C0000081E00E94BD008091DB
S11308D05E0163E070E0681B7109882777FD8095ED
S11308E0982F0E94C10184EF90E00E94AB018FEF2A
S11308F091EEA4E081509040A040E1F700C00000D8
S11309008EE190E060915E010E94510081E080934D
S1130910550180915E01833039F5AC9A81E00E94E3
S1130920BD0080E091E00E94AB0180EC0E94BD001C
S113093080E191E00E94AB018FEF97EAA1E681503C
S11309409040A040E1F700C00000AC9881E00E9414
S1130950BD008BE191E00E94AB0110925E018EE13B
S113096090E060E00E945100CF91089588E190E00A
S11309700E944900809352018DE190E00E94490059
S11309808093510184E190E00E94490080934F01DB
S113099085E190E00E94490080934E0186E190E059
S11309A00E94490080934D0187E190E00E94490034
S11309B080934C0189E190E00E94490080935B019F
S11309C08AE190E00E94490080935F018BE190E00E
S11309D00E94490080935A018CE190E00E944900F2
S11309E080935901A09AA29AA49A0E9417010E9486
S11309F05A000E94A1050E94B2058EE190E00E9477
S1130A00490080935E0100E011E00F2EF0E1EF2E2B
S1130A10F1E0FF2EF02D0F2EFBE1CF2EF1E0DF2EC3
S1130A20F02D0F2EFCE2AF2EF1E0BF2EF02D0F2E95
S1130A30F3E09F2EF02D0F2EFCE36F2EF1E07F2EBE
S1130A40F02DC4EDD0E080915E018330F9F4AC9ACE
S1130A5081E00E94BD00C8010E94AB0180EC0E94AD
S1130A60BD00C7010E94AB018FEF97EAA1E6815058
S1130A709040A040E1F700C00000AC9881E00E94E3
S1130A80BD00C6010E94AB0110925E01809152012B
S1130A908F3FE1F4809154018823C1F481E00E94E6
S1130AA0BD00C5010E94AB0181E080935401809395
S1130AB0550110925001809356018FEF93ECA9E0F9
S1130AC081509040A040E1F700C0000080915101A6
S1130AD08F3FE1F4809154018230C1F4909254012B
S1130AE081E00E94BD00C3010E94AB0181E08093BC
S1130AF0550180935001809356018FEF93ECA9E048
S1130B0081509040A040E1F700C000008091560160
S1130B108823A1F481E00E94BD00CE010E94AB01B4
S1130B208FEF99E6A8E181509040A040E1F700C022
S1130B300000809156018F5F809356010E94D70276
S1130B4082CF87B3806B87BB80E58DB90895BE9A49
S1130B506E9A08958FB9779BFECF0895779BFECF49
S1130B608FB1089585E883BF789408958DE883BF95
S1130B7088EC8CBF89B7826089BF78940895A1E21C
S1130B801A2EAA1BBB1BFD010DC0AA1FBB1FEE1F03
S1130B90FF1FA217B307E407F50720F0A21BB30B4E
S1130BA0E40BF50B661F771F881F991F1A9469F7CA
S1130BB060957095809590959B01AC01BD01CF0126
S1090BC00895F894FFCF34
S1130BC63738394E3435364E3132334E4E304E4E3A
S1130BD6313E526F6F6D3100323E526F6F6D32008F
S1130BE6333E526F6F6D3300343E4D6F7265003481
S1130BF63E526F6F6D3400353E545600363E434FB9
S1130C064E4400373E6261636B0041646D696E2039
S1130C1670617373776F72640047756573742070BF
S1130C26617373776F72640077726F6E6720656E97
S1130C3674727900303E61646D696E26313E677563
S1130C46657374200057726F6E67207061737377D3
S1130C566F726400205472696573206C6566740053
S1130C66796F752061726520626C6F636B656400D1
S1130C76666F722032302073656300456E74657248
S1130C86207269676874207061737300456E7465B9
S1130C9672206E65772061646D696E00456E7465B9
S1130CA672206E657720677565737400040302010C
S9030000FC
