S0190000536D6172745F686F6D655F6D61737465722E7372656311
S11300000C942A000C9447000C9447000C9447006D
S11300100C9447000C9447000C9447000C94470040
S11300200C9447000C9447000C9447000C942C0249
S11300300C9447000C9447000C9447000C94470020
S11300400C9447000C9447000C9447000C94470010
S11300500C94470011241FBECFE5D8E0DEBFCDBF0E
S113006011E0A0E6B0E0EAE7FDE002C005900D92E1
S1130070AA39B107D9F711E0AAE9B1E001C01D928C
S1130080AB3AB107E1F70E9490050C94BB060C94BF
S113009000002CB321FDFDCF9FBB8EBBE09A8DB336
S11300A008952CB321FDFDCF9FBB8EBB6DBBE29A9F
S11300B0E19A08958A988B988C988D9882B38C6372
S11300C082BBB89AB99ABA9ABB9A0895E0E088B309
S11300D0807F88BBEE2321F488B38E6088BB0CC07C
S11300E0E13021F488B38D6088BB0BC0E23021F489
S11300F088B38B6088BB05C0E33019F488B387608C
S113010088BB80B382FD09C0F0E0EE0FFF1FEE0F45
S1130110FF1FE05AFF4F8081089580B383FD09C01B
S1130120F0E0EE0FFF1FEE0FFF1FE05AFF4F81813B
S1130130089580B384FD09C0F0E0EE0FFF1FEE0FB9
S1130140FF1FE05AFF4F8281089580B385FD09C0E7
S1130150F0E0EE0FFF1FEE0FFF1FE05AFF4F838109
S113016008958FE99FE00197F1F700C00000EF5F69
S1130170E43009F0ACCF8FEF0895D998982F929579
S11301809F7090FF02C0DB9A01C0DB98982F929574
S11301909695977090FF02C0DC9A01C0DC98982F66
S11301A0929596959695937090FF02C0DD9A01C042
S11301B0DD98882314F4DE9A01C0DE98DA9AEFE918
S11301C0FFE03197F1F700C00000DA98EFE9FFE0B3
S11301D03197F1F700C0000080FF02C0DB9A01C034
S11301E0DB98982F969590FF02C0DC9A01C0DC98AA
S11301F0982F9695969590FF02C0DD9A01C0DD98E0
S113020086958695869580FF02C0DE9A01C0DE98A9
S1130210DA9A8FE99FE00197F1F700C00000DA98BD
S1130220EFE9FFE03197F1F700C0000008958AB3C9
S11302308E678ABB83E00E94BD008FE79EE301972F
S1130240F1F700C0000083E00E94BD00AFE7BEE309
S11302501197F1F700C0000083E00E94BD008FE712
S11302609EE30197F1F700C0000082E00E94BD0008
S113027088E20E94BD0088E00E94BD0081E00E94E7
S1130280BD0086E00E94BD008FEF99EFA0E0815091
S11302909040A040E1F700C000008CE00E94BD0047
S11302A00895D99A982F92959F7090FF02C0DB9A77
S11302B001C0DB98982F92959695977090FF02C095
S11302C0DC9A01C0DC98982F929596959695937038
S11302D090FF02C0DD9A01C0DD98882314F4DE9AF1
S11302E001C0DE98DA9AEFE9FFE03197F1F700C038
S11302F00000DA98EFE9FFE03197F1F700C0000061
S113030080FF02C0DB9A01C0DB98982F969590FF7E
S113031002C0DC9A01C0DC98982F9695969590FFC0
S113032002C0DD9A01C0DD9886958695869580FF8A
S113033002C0DE9A01C0DE98DA9A8FE99FE0019745
S1130340F1F700C00000DA98EFE9FFE03197F1F728
S113035000C0000008950F931F93CF938C01FC01FC
S11303608081882351F0C0E00E945101CF5FF801E1
S1130370EC0FF11D80818823B9F7CF911F910F9164
S113038008958F929F92AF92BF92EF92FF921F9324
S1130390CF93DF93CDB7DEB72A970FB6F894DEBFBD
S11303A00FBECDBFDC01CB01AE014F5F5F4F2AE032
S11303B0FA0111922A95E9F70097A105B10521F4F4
S11303C080E30E94510138C010E00F2EFAE08F2E16
S11303D0F0E09F2EF0E0AF2EF0E0BF2EF02DE12EE6
S11303E0FF24E7FCF09421E030E02C0F3D1FE20EE7
S11303F0F31EBC01CD01A50194010E949906605D24
S1130400F7016083822F932FA42FB52F1F5F0097CE
S1130410A105B10521F711507AF0E12FFF27E7FD7F
S1130420F09521E030E02C0F3D1FE20FF31F808197
S11304300E945101115088F72A960FB6F894DEBF36
S11304400FBECDBFDF91CF911F91FF90EF90BF9072
S1130450AF909F908F9008951F920F920FB60F92B6
S113046011248F939F938091A0018F5F8093A001AB
S11304709091A1019F5F9093A1018F3FA1F480917E
S11304809A01882381F495B381E0892785BB109272
S1130490A0011092A10110929E0110929F0189B7B0
S11304A08E7F89BF12C09F3F81F480919A01813071
S11304B061F4AA981092A0011092A10110929E01D9
S11304C010929F0189B78E7F89BF9F918F910F9062
S11304D00FBE0F901F90189580E790E00E94AB012B
S11304E088E80E94BD0088E790E00E94AB0180ECA0
S11304F00E94BD0080E890E00E94AB0188EC0E945D
S1130500BD0088E890E00E94AB010895A89A89B7DD
S1130510816089BF0E946C0285E080939E010895EA
S11305208FE890E00E94AB0188E80E94BD0087E953
S113053090E00E94AB0180EC0E94BD008CE990E049
S11305400E94AB0188EC0E94BD0083EA90E00E9407
S1130550AB01089580E790E00E94AB0188E80E9417
S1130560BD0088E790E00E94AB0180EC0E94BD00D2
S113057080E890E00E94AB0188EC0E94BD008AEA0A
S113058090E00E94AB010895AA9A89B7816089BF5F
S11305900E94AA0285E080939E010895CF930E9451
S11305A06600C82F8F3F09F4B9C28E3409F4B6C26D
S11305B080919E01833009F4A1C0843038F48130E5
S11305C009F460C0823008F07BC00AC0853009F4A9
S11305D0C6C1853008F4B0C0863009F09FC264C239
S11305E0C033B1F41092A7018EE190E060E00E9464
S11305F0510010929A0180919E018F5F80939E0119
S113060081E00E94BD0082EB90E00E94AB0130C00B
S1130610C133B9F41092A7018EE190E060E00E942A
S1130620510081E080939A0180919E018F5F8093B5
S11306309E0181E00E94BD0081EC90E00E94AB012C
S113064017C081E00E94BD0080ED90E00E94AB01E4
S11306508FEF93ECA9E081509040A040E1F700C0F7
S1130660000081E00E94BD008CED90E00E94AB018F
S11306708FEF93ECA9E081509040A040E1F700C0D7
S113068000004CC283EC0E94BD008C2F0E945101DB
S11306908FEF91EEA4E081509040A040E1F700C0BC
S11306A0000083EC0E94BD008AE20E945101C05305
S11306B0C093A90180919E018F5F80939E012EC2F9
S11306C084EC0E94BD008C2F0E9451018FEF91EEAB
S11306D0A4E081509040A040E1F700C0000084EC09
S11306E00E94BD008AE20E945101C053C093A6013A
S11306F080919E018F5F80939E0110C285EC0E94C1
S1130700BD008C2F0E9451018FEF91EEA4E0815027
S11307109040A040E1F700C0000085EC0E94BD00BD
S11307208AE20E945101C053C093AA0180919E01A4
S11307308F5F80939E01F2C186EC0E94BD008C2FD6
S11307400E9451018FEF91EEA4E081509040A040AF
S1130750E1F700C0000086EC0E94BD008AE20E941E
S1130760510181E00E94BD008C2F80538093A5012C
S11307706091A901909199016917D9F42091A6017A
S1130780909198012917A9F42091AA0190919701B9
S1130790291779F490919601891759F490919A0147
S11307A0992339F490919D01992319F40E948602AA
S11307B0B5C19091A4016917D9F42091A601909133
S11307C0A8012917A9F42091AA019091A30129173E
S11307D079F49091A201891759F480919A0181309A
S11307E039F480919D01882319F40E94C402B7C092
S11307F080919D01813029F590919A01992309F501
S113080084E190E00E94510085E190E06091A601AE
S11308100E94510086E190E06091AA010E9451007B
S113082087E190E06091A5010E94510088E190E089
S11308306FE00E94510080919D018F5F80939D0124
S11308408EC0833039F580919A01813019F589E1A0
S113085090E00E9451008AE190E06091A6010E941C
S113086051008BE190E06091AA010E9451008CE15B
S113087090E06091A5010E9451008DE190E06FE04D
S11308800E94510080919D018F5F80939D01109281
S11308909F0165C08091A7018F5F8093A70181E0CC
S11308A00E94BD008DEE90E00E94AB018FEF95EAAF
S11308B0AEE081509040A040E1F700C0000081E02C
S11308C00E94BD008091A70163E070E0681B71097C
S11308D0882777FD8095982F0E94C1018CEF90E0C6
S11308E00E94AB018FEF91EEA4E081509040A040B4
S11308F0E1F700C000008EE190E06091A7010E9442
S1130900510081E080939E018091A701833039F5E5
S1130910AC9A81E00E94BD0088E091E00E94AB01A6
S113092080EC0E94BD0088E191E00E94AB018FEF52
S113093097EAA1E681509040A040E1F700C0000092
S1130940AC9881E00E94BD0083E291E00E94AB017B
S11309501092A7018EE190E060E00E945100C33341
S1130960B9F1C43344F4C13379F0C233FCF4CF3F5A
S113097009F084C0D3C0C53309F44EC0C533D4F1E3
S1130980C63309F07BC061C081E00E94BD0084E3EE
S113099091E00E94AB0180EC0E94BD008BE391E0EA
S11309A00E94AB0186E080939E01B8C081E00E9462
S11309B0BD008DE491E00E94AB0180EC0E94BD007B
S11309C08BE391E00E94AB0186E080939E01A6C078
S11309D081E00E94BD0084E591E00E94AB0180ECBF
S11309E00E94BD008BE391E00E94AB0186E08093FE
S11309F09E0194C081E00E94BD008BE591E00E94BD
S1130A00AB0180EC0E94BD008BE391E00E94AB013E
S1130A1086E080939E0182C080919A01882391F49C
S1130A2081E00E94BD0082E691E00E94AB0180EC6F
S1130A300E94BD008BE391E00E94AB0186E08093AD
S1130A409E016CC00E94AA0269C080919A01882309
S1130A5091F481E00E94BD0085E691E00E94AB0123
S1130A6080EC0E94BD008BE391E00E94AB0186E024
S1130A7080939E0153C00E94AA0250C081E00E944C
S1130A80BD0080ED90E00E94AB018FEF91EEA4E0F9
S1130A9081509040A040E1F700C0000081E00E9436
S1130AA0BD000E946C023AC0C23399F0C33301F115
S1130AB0C13369F581E00E94BD0084E391E00E94A6
S1130AC0AB0180EC0E94BD008AE691E00E94AB017C
S1130AD025C081E00E94BD0084E391E00E94AB0147
S1130AE080EC0E94BD008AE691E00E94AB0116C032
S1130AF081E00E94BD0084E391E00E94AB0180ECA0
S1130B000E94BD0081E791E00E94AB0107C081E033
S1130B100E94BD0080ED90E00E94AB01CF9108954A
S1130B2088E190E00E94490080939C018DE190E06F
S1130B300E94490080939B0184E190E00E94490057
S1130B408093990185E190E00E9449008093980187
S1130B5086E190E00E9449008093970187E190E04C
S1130B600E9449008093960189E190E00E94490027
S1130B708093A4018AE190E00E9449008093A80137
S1130B808BE190E00E9449008093A3018CE190E006
S1130B900E9449008093A201A09AA29AA49A0E945A
S1130BA017010E945A000E947B060E948C068EE167
S1130BB090E00E9449008093A70108E011E00F2E05
S1130BC0F8E1EF2EF1E0FF2EF02D0F2EF3E2CF2E01
S1130BD0F1E0DF2EF02D0F2EF6E7AF2EF1E0BF2E61
S1130BE0F02D0F2EF3E09F2EF02D0F2EF6E86F2E32
S1130BF0F1E07F2EF02DCCEDD0E08091A701833081
S1130C00F9F4AC9A81E00E94BD00C8010E94AB01D6
S1130C1080EC0E94BD00C7010E94AB018FEF97EAF0
S1130C20A1E681509040A040E1F700C00000AC98DC
S1130C3081E00E94BD00C6010E94AB011092A70191
S1130C4080919C018F3FE1F480919D018823C1F440
S1130C5081E00E94BD00C5010E94AB0181E0809348
S1130C609D0180939E0110929A0180939F018FEFC2
S1130C7093ECA9E081509040A040E1F700C000004F
S1130C8080919B018F3FE1F480919D018230C1F4FA
S1130C9090929D0181E00E94BD00C3010E94AB01BE
S1130CA081E080939E0180939A0180939F018FEF4E
S1130CB093ECA9E081509040A040E1F700C000000F
S1130CC080919F018823A1F481E00E94BD00CE01A0
S1130CD00E94AB018FEF99E6A8E181509040A040BB
S1130CE0E1F700C0000080919F018F5F80939F0116
S1130CF00E94CE0282CF87B3806B87BB80E58DB91B
S1130D000895BE9A6E9A08958FB9779BFECF089581
S1130D10779BFECF8FB1089585E883BF78940895BB
S1130D208DE883BF88EC8CBF89B7826089BF7894D3
S1130D300895A1E21A2EAA1BBB1BFD010DC0AA1F18
S1130D40BB1FEE1FFF1FA217B307E407F50720F030
S1130D50A21BB30BE40BF50B661F771F881F991FAB
S1130D601A9469F760957095809590959B01AC01F4
S10D0D70BD01CF010895F894FFCFF0
S1130D7A3738394E3435364E3132334E4E304E4E84
S1130D8A313E526F6F6D3100323E526F6F6D3200D9
S1130D9A333E526F6F6D3300343E4D6F72650031CE
S1130DAA3E526F6F6D3400323E545600333E434F09
S1130DBA4E4400343E6261636B00343E526F6F6D81
S1130DCA340041646D696E2070617373776F726465
S1130DDA0047756573742070617373776F7264006A
S1130DEA77726F6E6720656E74727900303E616443
S1130DFA6D696E26313E6775657374200057726F8C
S1130E0A6E672070617373776F726400205472691D
S1130E1A6573206C65667400796F7520617265204C
S1130E2A626C6F636B656400666F72203230207384
S1130E3A656300456E746572207269676874207010
S1130E4A61737300526F6F6D203100313E6F6E20F3
S1130E5A323E6F666620333E6261636B00526F6F87
S1130E6A6D203200526F6F6D203300526F6F6D2008
S1130E7A3400545600434F4E4400616374696F6EE4
S1130E8A006261636B00456E746572206E6577203B
S1130E9A61646D696E00456E746572206E657720B3
S10D0EAA6775657374000403020108
S9030000FC
