:100000000C942A000C9447000C9447000C94470071
:100010000C9447000C9447000C9447000C94470044
:100020000C9447000C9447000C9447000C942C024D
:100030000C9447000C9447000C9447000C94470024
:100040000C9447000C9447000C9447000C94470014
:100050000C94470011241FBECFE5D8E0DEBFCDBF12
:1000600012E0A0E6B0E0EAECFFE002C005900D92DD
:10007000A432B107D9F712E0A4E2B2E001C01D92A8
:10008000A733B107E1F70E9471060C94E3070C94C3
:1000900000002CB321FDFDCF9FBB8EBBE09A8DB33A
:1000A00008952CB321FDFDCF9FBB8EBB6DBBE29AA3
:1000B000E19A08958A988B988C988D9882B38C6376
:1000C00082BBB89AB99ABA9ABB9A0895E0E088B30D
:1000D000807F88BBEE2321F488B38E6088BB0CC080
:1000E000E13021F488B38D6088BB0BC0E23021F48D
:1000F00088B38B6088BB05C0E33019F488B3876090
:1001000088BB80B382FD09C0F0E0EE0FFF1FEE0F49
:10011000FF1FE05AFF4F8081089580B383FD09C01F
:10012000F0E0EE0FFF1FEE0FFF1FE05AFF4F81813F
:10013000089580B384FD09C0F0E0EE0FFF1FEE0FBD
:10014000FF1FE05AFF4F8281089580B385FD09C0EB
:10015000F0E0EE0FFF1FEE0FFF1FE05AFF4F83810D
:1001600008958FE99FE00197F1F700C00000EF5F6D
:10017000E43009F0ACCF8FEF0895D998982F92957D
:100180009F7090FF02C0DB9A01C0DB98982F929578
:100190009695977090FF02C0DC9A01C0DC98982F6A
:1001A000929596959695937090FF02C0DD9A01C046
:1001B000DD98882314F4DE9A01C0DE98DA9AEFE91C
:1001C000FFE03197F1F700C00000DA98EFE9FFE0B7
:1001D0003197F1F700C0000080FF02C0DB9A01C038
:1001E000DB98982F969590FF02C0DC9A01C0DC98AE
:1001F000982F9695969590FF02C0DD9A01C0DD98E4
:1002000086958695869580FF02C0DE9A01C0DE98AD
:10021000DA9A8FE99FE00197F1F700C00000DA98C1
:10022000EFE9FFE03197F1F700C0000008958AB3CD
:100230008E678ABB83E00E94BD008FE79EE3019733
:10024000F1F700C0000083E00E94BD00AFE7BEE30D
:100250001197F1F700C0000083E00E94BD008FE716
:100260009EE30197F1F700C0000082E00E94BD000C
:1002700088E20E94BD0088E00E94BD0081E00E94EB
:10028000BD0086E00E94BD008FEF99EFA0E0815095
:100290009040A040E1F700C000008CE00E94BD004B
:1002A0000895D99A982F92959F7090FF02C0DB9A7B
:1002B00001C0DB98982F92959695977090FF02C099
:1002C000DC9A01C0DC98982F92959695969593703C
:1002D00090FF02C0DD9A01C0DD98882314F4DE9AF5
:1002E00001C0DE98DA9AEFE9FFE03197F1F700C03C
:1002F0000000DA98EFE9FFE03197F1F700C0000065
:1003000080FF02C0DB9A01C0DB98982F969590FF82
:1003100002C0DC9A01C0DC98982F9695969590FFC4
:1003200002C0DD9A01C0DD9886958695869580FF8E
:1003300002C0DE9A01C0DE98DA9A8FE99FE0019749
:10034000F1F700C00000DA98EFE9FFE03197F1F72C
:1003500000C0000008950F931F93CF938C01FC0100
:100360008081882351F0C0E00E945101CF5FF801E5
:10037000EC0FF11D80818823B9F7CF911F910F9168
:1003800008958F929F92AF92BF92EF92FF921F9328
:10039000CF93DF93CDB7DEB72A970FB6F894DEBFC1
:1003A0000FBECDBFDC01CB01AE014F5F5F4F2AE036
:1003B000FA0111922A95E9F70097A105B10521F4F8
:1003C00080E30E94510138C010E00F2EFAE08F2E1A
:1003D000F0E09F2EF0E0AF2EF0E0BF2EF02DE12EEA
:1003E000FF24E7FCF09421E030E02C0F3D1FE20EEB
:1003F000F31EBC01CD01A50194010E94C107605DFF
:10040000F7016083822F932FA42FB52F1F5F0097D2
:10041000A105B10521F711507AF0E12FFF27E7FD83
:10042000F09521E030E02C0F3D1FE20FF31F80819B
:100430000E945101115088F72A960FB6F894DEBF3A
:100440000FBECDBFDF91CF911F91FF90EF90BF9076
:10045000AF909F908F9008951F920F920FB60F92BA
:1004600011248F939F9380912C028F5F80932C0295
:1004700090912D029F5F90932D028D35A1F4809174
:100480002402882381F495B381E0892785BB1092EB
:100490002C0210922D021092290210922A0289B782
:1004A0008E7F89BF12C09D3581F4809124028130F6
:1004B00061F4AA9810922C0210922D021092290237
:1004C00010922A0289B78E7F89BF9F918F910F90DA
:1004D0000FBE0F901F90189581E00E94BD0080E72D
:1004E00090E00E94AB0188E80E94BD0088E790E0A0
:1004F0000E94AB0180EC0E94BD0080E890E00E9469
:10050000AB0188EC0E94BD0088E890E00E94AB013E
:100510000895A89A89B7816089BF0E946C0285E01E
:1005200080932902089581E00E94BD008FE890E049
:100530000E94AB0188E80E94BD0087E990E00E941C
:10054000AB0180EC0E94BD008CE990E00E94AB0101
:1005500088EC0E94BD0083EA90E00E94AB01089500
:1005600081E00E94BD0080E790E00E94AB0188E836
:100570000E94BD0088E790E00E94AB0180EC0E94E1
:10058000BD0080E890E00E94AB0188EC0E94BD00B5
:100590008FE890E00E94AB010895AA9A89B7816024
:1005A00089BF0E94B00285E0809329020895CF930D
:1005B0000E946600C82F8F3F09F491C38E3409F45E
:1005C0008EC380912902833009F493C0843038F4BB
:1005D000813009F452C0823008F06DC00AC0853005
:1005E00009F4D8C1853008F4A2C0863009F077C379
:1005F00003C3C03361F41092240281E08093290286
:100600000E94BD008AEA90E00E94AB012CC0C13379
:1006100061F481E080932402809329020E94BD004E
:1006200089EB90E00E94AB011EC081E00E94BD00FA
:1006300088EC90E00E94AB018FEF93ECA9E0815031
:100640009040A040E1F700C0000081E00E94BD00A2
:1006500084ED90E00E94AB0180EC0E94BD0083EE2F
:1006600090E00E94AB018FEF93ECA9E081509040A5
:10067000A040E1F700C0000032C383EC0E94BD003F
:100680008C2F0E9451018FEF91EEA4E08150904099
:10069000A040E1F700C0000083EC0E94BD008AE2A8
:1006A0000E945101C053C0933502809129028F5F8F
:1006B0008093290214C384EC0E94BD008C2F0E94F9
:1006C00051018FEF91EEA4E081509040A040E1F7FE
:1006D00000C0000084EC0E94BD008AE20E9451012B
:1006E000C053C0933202809129028F5F8093290208
:1006F000F6C285EC0E94BD008C2F0E9451018FEF45
:1007000091EEA4E081509040A040E1F700C00000CD
:1007100085EC0E94BD008AE20E945101C053C09343
:100720003602809129028F5F80932902D8C286EC1D
:100730000E94BD008C2F0E9451018FEF91EEA4E02A
:1007400081509040A040E1F700C0000086EC0E947C
:10075000BD008AE20E94510181E00E94BD00C053A9
:10076000C09331026091350280912202681711F521
:1007700090913202809121029817E1F49091360213
:10078000809120029817B1F480911F02C81791F44C
:1007900080912402882371F480912802882351F4E7
:1007A0000E948902109233028EE190E060E00E9484
:1007B000510095C280913002681711F59091320274
:1007C000809134029817E1F49091360280912F02C3
:1007D0009817B1F480912E02C81791F480912402E9
:1007E000813071F480912802882351F40E94CD0257
:1007F000109233028EE190E060E00E9451006FC2DF
:1008000080912802813031F580912402882309F0FB
:100810005AC084E190E00E94510085E190E060912F
:1008200032020E94510086E190E0609136020E94FF
:10083000510087E190E0609131020E94510088E10F
:1008400090E06FE00E945100809128028F5F8093BA
:10085000280245C28330B9F580912402813099F590
:1008600089E190E00E9451008AE190E060913202BB
:100870000E9451008BE190E0609136020E9451008D
:100880008CE190E0609131020E9451008DE190E096
:100890006FE00E945100809128028F5F80932802B0
:1008A00081E00E94BD0084EF90E00E94AB018FEFD9
:1008B00099E6A8E181509040A040E1F700C0000017
:1008C00010922A020CC2809133028F5F8093330210
:1008D00081E00E94BD0084E091E00E94AB018FEFB7
:1008E00092E5A7E081509040A040E1F700C00000F1
:1008F00081E00E94BD008091330263E070E0681BDC
:100900007109882777FD8095982F0E94C10183E1A6
:1009100091E00E94AB018EE190E0609133020E9471
:1009200051008FEF91EEA4E081509040A040E1F79C
:1009300000C0000081E0809329028091330283305F
:1009400009F0CDC1AC9A81E00E94BD008FE191E039
:100950000E94AB0180EC0E94BD008FE291E00E94FA
:10096000AB018FEF97EAA1E681509040A040E1F7FC
:1009700000C00000AC9881E00E94BD008AE391E0D5
:100980000E94AB01109233028EE190E060E00E9481
:100990005100A5C1C43309F472C0C53364F4C23335
:1009A00091F1C3330CF04DC0CF3F09F498C1C1336E
:1009B00009F014C10AC0C63309F4D2C0C6330CF41E
:1009C000A3C0C73309F00AC1F7C08091270288236A
:1009D00009F085C181E00E94BD008BE491E00E9496
:1009E000AB0180EC0E94BD0082E591E00E94AB016A
:1009F00081E380932B02C4980E94AC07C49A86E0DE
:100A0000809329026CC180912702882309F067C175
:100A100081E00E94BD0084E691E00E94AB0180EC81
:100A20000E94BD0082E591E00E94AB0182E38093C9
:100A30002B02C4980E94AC07C49A86E080932902D6
:100A40004EC180912702882309F049C181E00E94AC
:100A5000BD008BE691E00E94AB0180EC0E94BD00DE
:100A600082E591E00E94AB0183E380932B02C4985E
:100A70000E94AC07C49A86E08093290230C184E3C7
:100A800080932B02809124028130B1F40E94BD003A
:100A900082E791E00E94AB0180EC0E94BD0082E5FC
:100AA00091E00E94AB01C49884E30E94AC07C49A11
:100AB00086E08093290213C1882309F010C1809138
:100AC0002702882331F40E94930281E08093270259
:100AD00006C1813009F003C10E94BD0082E791E0A8
:100AE0000E94AB0180EC0E94BD0082E591E00E9473
:100AF000AB01C49884E30E94AC07C49A86E080935B
:100B0000290210922702EBC085E380932B0280918B
:100B100024028823E9F480912702813009F0DFC0A4
:100B20000E94BD0089E791E00E94AB0180EC0E9429
:100B3000BD0082E591E00E94AB01C49885E30E946C
:100B4000AC07C49A1092270286E080932902C7C09E
:100B5000813009F0C4C00E94BD000E94B002BFC035
:100B600086E380932B02809124028823E9F480910C
:100B70002702813009F0B3C00E94BD008CE791E0EC
:100B80000E94AB0180EC0E94BD0082E591E00E94D2
:100B9000AB01C49886E30E94AC07C49A1092270266
:100BA00086E0809329029BC0813009F098C00E94A2
:100BB000BD000E94B00293C087E380932B02809116
:100BC0002402882309F08BC080912702813009F02C
:100BD00086C00E946C021092270281C0809124027C
:100BE000882319F40E946C0204C0813011F40E9421
:100BF000B0021092270273C0C23349F1C33309F423
:100C000049C0C13309F05DC081E00E94BD0081E8A8
:100C100091E00E94AB0180EC0E94BD008FE891E062
:100C20000E94AB01C49881E30E94AC07C49A8FEF85
:100C300091EEA4E081509040A040E1F700C0000098
:100C4000C49880912B020E94AC07C49A48C081E0EE
:100C50000E94BD008DE991E00E94AB0180EC0E94F2
:100C6000BD008BEA91E00E94AB01C49882E30E9430
:100C7000AC07C49A8FEF91EEA4E081509040A04061
:100C8000E1F700C00000C49880912B020E94AC07DD
:100C9000C49A25C0C49880E30E94AC07C49A80918E
:100CA0002402882331F40E946C0285E0809329029B
:100CB00016C08130A1F40E94B00285E08093290221
:100CC0000EC081E00E94BD0088EC90E00E94AB0164
:100CD00080EC0E94BD0082E591E00E94AB01CF91C3
:100CE000089588E190E00E944900809326028DE1FA
:100CF00090E00E9449008093250284E190E00E94E8
:100D000049008093220285E190E00E94490080938F
:100D1000210286E190E00E9449008093200287E151
:100D200090E00E94490080931F0289E190E00E94B8
:100D30004900809330028AE190E00E94490080934C
:100D400034028BE190E00E94490080932F028CE1F5
:100D500090E00E94490080932E02A09AA29AA49A41
:100D60000E9417010E945A000E94A3070E94B40724
:100D70008EE190E00E944900809333028091260228
:100D80008F3039F4809125028F3F19F482E08093EF
:100D900028020F2EFFE1EF2EF1E0FF2EF02D0F2E97
:100DA000FFE2CF2EF1E0DF2EF02D0F2EFAE3AF2E73
:100DB000F1E0BF2EF02D0F2EF9EB8F2EF1E09F2EDC
:100DC000F02D0F2EFAEC6F2EF1E07F2EF02D0F2E6E
:100DD000FFEC4F2EF1E05F2EF02D0F2EFFED2F2EAA
:100DE000F1E03F2EF02DC1E0D2E00FE012E0809163
:100DF0003302833021F5AC9A81E00E94BD00C70127
:100E00000E94AB0180EC0E94BD00C6010E94AB01B4
:100E10008FEF97EAA1E681509040A040E1F700C033
:100E20000000AC9881E00E94BD00C5010E94AB01AA
:100E3000109233028EE190E060E00E9451008091B8
:100E400026028F3F09F040C0809128028823E1F5F7
:100E500081E00E94BD00C4010E94AB0180EC0E94B1
:100E6000BD00C3010E94AB018FEF99E6A8E181505C
:100E70009040A040E1F700C0000081E00E94BD006A
:100E8000C2010E94AB018FEF95EAAEE08150904025
:100E9000A040E1F700C0000081E00E94BD00C10158
:100EA0000E94AB0181E08093280280932902109276
:100EB000240280932A028FEF93ECA9E081509040A6
:100EC000A040E1F700C00000809125028F3FF1F4BF
:100ED000809128028230D1F493E09093280281E03F
:100EE0000E94BD0080EF91E00E94AB0181E0809301
:100EF00029028093240280932A028FEF93ECA9E0C9
:100F000081509040A040E1F700C0000080912A028B
:100F10008823B1F481E00E94BD00CE010E94AB01A4
:100F200080EC0E94BD00C8010E94AB0180912A02A2
:100F30008F5F80932A02C49880E30E94AC07C49A12
:100F40000E94D70254CF87B3806B87BB80E58DB9F1
:100F50000895BE9A6E9A08958FB9779BFECF089533
:100F6000779BFECF8FB1089585E883BF789408956D
:100F70008DE883BF88EC8CBF89B7826089BF789485
:100F80000895A1E21A2EAA1BBB1BFD010DC0AA1FCA
:100F9000BB1FEE1FFF1FA217B307E407F50720F0E2
:100FA000A21BB30BE40BF50B661F771F881F991F5D
:100FB0001A9469F760957095809590959B01AC01A6
:0A0FC000BD01CF010895F894FFCFA2
:100FCA003738394E3435364E3132334E4E304E4E36
:100FDA00313E526F6F6D3100323E526F6F6D32008B
:100FEA00333E526F6F6D3300343E4D6F726500347D
:100FFA003E526F6F6D3400353E545600363E434FB5
:10100A004E4400373E6261636B0041646D696E2035
:10101A0070617373776F72640047756573742070BB
:10102A00617373776F72640077726F6E6720656E93
:10103A007472790053656C656374204D6F64652022
:10104A003A2000303E41646D696E2020313E47757A
:10105A00657374004E6F77207072657373205265E2
:10106A007365740057726F6E672070617373776F60
:10107A00726400205472696573206C656674007925
:10108A006F752061726520626C6F636B65640066C0
:10109A006F722032302073656300456E746572206A
:1010AA007269676874207061737300526F6F6D2084
:1010BA003100313E6F6E20323E6F666620333E62EB
:1010CA0061636B00526F6F6D203200526F6F6D203B
:1010DA003300526F6F6D203400545600434F4E4414
:1010EA00007374617475733A2020206F6E20003289
:1010FA003E6F66662020333E6261636B00737461E3
:10110A007475733A20206F66662000313E6F6E2038
:10111A002020333E6261636B0057656C636F6D65B7
:10112A0020746F20536D61727400486F6D650055AD
:10113A0072206669727374206C6F6720696E00454D
:10114A006E7465722041646D696E2050617373001C
:10115A00456E746572204775657374207061737388
:10116A000073656C656374204D6F64653A200030C6
:10117A003E41646D696E20313E47756573740004A3
:04118A00030201005B
:00000001FF
