:100000000C942A000C9447000C9447000C94470071
:100010000C9447000C9447000C9447000C94470044
:100020000C9447000C9447000C9447000C942C024D
:100030000C9447000C9447000C9447000C94470024
:100040000C9447000C9447000C9447000C94470014
:100050000C94470011241FBECFE5D8E0DEBFCDBF12
:1000600011E0A0E6B0E0E2E3FFE002C005900D92EF
:10007000AE38B107D9F711E0AEE8B1E001C01D928A
:10008000A13AB107E1F70E9467060C9497070C9418
:1000900000002CB321FDFDCF9FBB8EBBE09A8DB33A
:1000A00008952CB321FDFDCF9FBB8EBB6DBBE29AA3
:1000B000E19A08958A988B988C988D9882B38C6376
:1000C00082BBB89AB99ABA9ABB9A0895E0E088B30D
:1000D000807F88BBEE2321F488B38E6088BB0CC080
:1000E000E13021F488B38D6088BB0BC0E23021F48D
:1000F00088B38B6088BB05C0E33019F488B3876090
:1001000088BB80B382FD09C0F0E0EE0FFF1FEE0F49
:10011000FF1FE05AFF4F8081089580B383FD09C01F
:10012000F0E0EE0FFF1FEE0FFF1FE05AFF4F81813F
:10013000089580B384FD09C0F0E0EE0FFF1FEE0FBD
:10014000FF1FE05AFF4F8281089580B385FD09C0EB
:10015000F0E0EE0FFF1FEE0FFF1FE05AFF4F83810D
:1001600008958FE99FE00197F1F700C00000EF5F6D
:10017000E43009F0ACCF8FEF0895D998982F92957D
:100180009F7090FF02C0DB9A01C0DB98982F929578
:100190009695977090FF02C0DC9A01C0DC98982F6A
:1001A000929596959695937090FF02C0DD9A01C046
:1001B000DD98882314F4DE9A01C0DE98DA9AEFE91C
:1001C000FFE03197F1F700C00000DA98EFE9FFE0B7
:1001D0003197F1F700C0000080FF02C0DB9A01C038
:1001E000DB98982F969590FF02C0DC9A01C0DC98AE
:1001F000982F9695969590FF02C0DD9A01C0DD98E4
:1002000086958695869580FF02C0DE9A01C0DE98AD
:10021000DA9A8FE99FE00197F1F700C00000DA98C1
:10022000EFE9FFE03197F1F700C0000008958AB3CD
:100230008E678ABB83E00E94BD008FE79EE3019733
:10024000F1F700C0000083E00E94BD00AFE7BEE30D
:100250001197F1F700C0000083E00E94BD008FE716
:100260009EE30197F1F700C0000082E00E94BD000C
:1002700088E20E94BD0088E00E94BD0081E00E94EB
:10028000BD0086E00E94BD008FEF99EFA0E0815095
:100290009040A040E1F700C000008CE00E94BD004B
:1002A0000895D99A982F92959F7090FF02C0DB9A7B
:1002B00001C0DB98982F92959695977090FF02C099
:1002C000DC9A01C0DC98982F92959695969593703C
:1002D00090FF02C0DD9A01C0DD98882314F4DE9AF5
:1002E00001C0DE98DA9AEFE9FFE03197F1F700C03C
:1002F0000000DA98EFE9FFE03197F1F700C0000065
:1003000080FF02C0DB9A01C0DB98982F969590FF82
:1003100002C0DC9A01C0DC98982F9695969590FFC4
:1003200002C0DD9A01C0DD9886958695869580FF8E
:1003300002C0DE9A01C0DE98DA9A8FE99FE0019749
:10034000F1F700C00000DA98EFE9FFE03197F1F72C
:1003500000C0000008950F931F93CF938C01FC0100
:100360008081882351F0C0E00E945101CF5FF801E5
:10037000EC0FF11D80818823B9F7CF911F910F9168
:1003800008958F929F92AF92BF92EF92FF921F9328
:10039000CF93DF93CDB7DEB72A970FB6F894DEBFC1
:1003A0000FBECDBFDC01CB01AE014F5F5F4F2AE036
:1003B000FA0111922A95E9F70097A105B10521F4F8
:1003C00080E30E94510138C010E00F2EFAE08F2E1A
:1003D000F0E09F2EF0E0AF2EF0E0BF2EF02DE12EEA
:1003E000FF24E7FCF09421E030E02C0F3D1FE20EEB
:1003F000F31EBC01CD01A50194010E947507605D4B
:10040000F7016083822F932FA42FB52F1F5F0097D2
:10041000A105B10521F711507AF0E12FFF27E7FD83
:10042000F09521E030E02C0F3D1FE20FF31F80819B
:100430000E945101115088F72A960FB6F894DEBF3A
:100440000FBECDBFDF91CF911F91FF90EF90BF9076
:10045000AF909F908F9008951F920F920FB60F92BA
:1004600011248F939F93809196018F5F80939601C3
:10047000909197019F5F909397018F3FA1F4809196
:100480008E01882381F495B381E0892785BB109282
:10049000960110929701109293011092940189B7DE
:1004A0008E7F89BF12C09F3F81F480918E01813081
:1004B00061F4AA98109296011092970110929301FC
:1004C0001092940189B78E7F89BF9F918F910F9071
:1004D0000FBE0F901F90189581E00E94BD0080E72D
:1004E00090E00E94AB0188E80E94BD0088E790E0A0
:1004F0000E94AB0180EC0E94BD0080E890E00E9469
:10050000AB0188EC0E94BD0088E890E00E94AB013E
:100510000895A89A89B7816089BF0E946C0285E01E
:1005200080939301089581E00E94BD008FE890E0E0
:100530000E94AB0188E80E94BD0087E990E00E941C
:10054000AB0180EC0E94BD008CE990E00E94AB0101
:1005500088EC0E94BD0083EA90E00E94AB01089500
:1005600081E00E94BD0080E790E00E94AB0188E836
:100570000E94BD0088E790E00E94AB0180EC0E94E1
:10058000BD0080E890E00E94AB0188EC0E94BD00B5
:100590008FE890E00E94AB010895AA9A89B7816024
:1005A00089BF0E94B00285E0809393010895CF93A4
:1005B0000E946600C82F8F3F09F487C38E3409F468
:1005C00084C380919301833009F4A1C0843038F44E
:1005D000813009F460C0823008F07BC00AC08530E9
:1005E00009F4C8C1853008F4B0C0863009F06DC385
:1005F000F9C2C033B1F410929D018EE190E060E049
:100600000E94510010928E01809193018F5F809320
:10061000930181E00E94BD008AEA90E00E94AB0154
:1006200030C0C133B9F410929D018EE190E060E0DA
:100630000E94510081E080938E01809193018F5F31
:100640008093930181E00E94BD0089EB90E00E94BD
:10065000AB0117C081E00E94BD0088EC90E00E94D1
:10066000AB018FEF93ECA9E081509040A040E1F7FF
:1006700000C0000081E00E94BD0084ED90E00E9477
:10068000AB018FEF93ECA9E081509040A040E1F7DF
:1006900000C000001AC383EC0E94BD008C2F0E9492
:1006A00051018FEF91EEA4E081509040A040E1F71E
:1006B00000C0000083EC0E94BD008AE20E9451014C
:1006C000C053C0939F01809193018F5F80939301EA
:1006D000FCC284EC0E94BD008C2F0E9451018FEF60
:1006E00091EEA4E081509040A040E1F700C00000EE
:1006F00084EC0E94BD008AE20E945101C053C09365
:100700009C01809193018F5F80939301DEC285EC01
:100710000E94BD008C2F0E9451018FEF91EEA4E04A
:1007200081509040A040E1F700C0000085EC0E949D
:10073000BD008AE20E945101C053C093A001809184
:1007400093018F5F80939301C0C286EC0E94BD002D
:100750008C2F0E9451018FEF91EEA4E081509040C8
:10076000A040E1F700C0000086EC0E94BD008AE2D4
:100770000E94510181E00E94BD00C053C0939B01C3
:1007800060919F0180918C016817D9F490919C0130
:1007900080918B019817A9F49091A00180918A0112
:1007A000981779F480918901C81759F480918E01C6
:1007B000882339F480919201882319F40E948902D8
:1007C00084C280919A016817D9F490919C0180911C
:1007D0009E019817A9F49091A00180919901981712
:1007E00079F480919801C81759F480918E01813075
:1007F00039F480919201882319F40E94CD0265C2D8
:1008000080919201813031F580918E01882309F029
:100810004AC084E190E00E94510085E190E060913F
:100820009C010E94510086E190E06091A0010E942D
:10083000510087E190E060919B010E94510088E1A6
:1008400090E06FE00E945100809192018F5F809351
:1008500092013BC2833039F580918E01813019F5C8
:1008600089E190E00E9451008AE190E060919C0152
:100870000E9451008BE190E06091A0010E94510024
:100880008CE190E060919B010E9451008DE190E02D
:100890006FE00E945100809192018F5F80939201DE
:1008A0001092940112C280919D018F5F80939D01EF
:1008B00081E00E94BD0085EE90E00E94AB018FEFC9
:1008C00095EAAEE081509040A040E1F700C0000002
:1008D00081E00E94BD0080919D0163E070E0681B93
:1008E0007109882777FD8095982F0E94C10184EFB8
:1008F00090E00E94AB018FEF91EEA4E08150904018
:10090000A040E1F700C000008EE190E060919D0101
:100910000E94510081E08093930180919D0183307A
:1009200009F0D3C1AC9A81E00E94BD0080E091E063
:100930000E94AB0180EC0E94BD0080E191E00E942A
:10094000AB018FEF97EAA1E681509040A040E1F71C
:1009500000C00000AC9881E00E94BD008BE191E0F6
:100960000E94AB0110929D018EE190E060E00E9438
:100970005100ABC1C43309F463C0C53364F4C2335E
:1009800069F1C3330CF043C0CF3F09F49EC1C133BA
:1009900009F025C10AC0C63309F4D3C0C6330CF42C
:1009A00094C0C73309F01BC108C181E00E94BD009B
:1009B0008CE291E00E94AB0180EC0E94BD0083E3D9
:1009C00091E00E94AB0181E380939501C4980E945D
:1009D0006007C49A86E08093930177C181E00E940A
:1009E000BD0085E491E00E94AB0180EC0E94BD0057
:1009F00083E391E00E94AB0182E380939501C49868
:100A00000E946007C49A86E0809393015EC181E0F2
:100A10000E94BD008CE491E00E94AB0180EC0E943A
:100A2000BD0083E391E00E94AB0183E380939501D5
:100A3000C4980E946007C49A86E08093930145C1E0
:100A400084E38093950180918E018130B1F40E94FE
:100A5000BD0083E591E00E94AB0180EC0E94BD00E7
:100A600083E391E00E94AB01C49884E30E94600795
:100A7000C49A86E08093930128C1882309F025C198
:100A800080919101882331F40E94930281E0809348
:100A900091011BC1813009F018C10E94BD0083E59E
:100AA00091E00E94AB0180EC0E94BD0083E391E0E5
:100AB0000E94AB01C49884E30E946007C49A86E058
:100AC000809393011092910100C185E38093950179
:100AD00080918E018823E9F480919101813009F0A1
:100AE000F4C00E94BD008AE591E00E94AB0180EC59
:100AF0000E94BD0083E391E00E94AB01C49885E3AE
:100B00000E946007C49A1092910186E0809393013D
:100B1000DCC0813009F0D9C00E94BD0088EC90E0B3
:100B20000E94AB018FEF91EEA4E081509040A04075
:100B3000E1F700C0000081E00E94BD000E94B00209
:100B4000C4C086E38093950180918E018823E9F4E7
:100B500080919101813009F0B8C00E94BD008DE5FF
:100B600091E00E94AB0180EC0E94BD0083E391E024
:100B70000E94AB01C49886E30E946007C49A109259
:100B8000910186E080939301A0C0813009F09DC05F
:100B90000E94BD0088EC90E00E94AB018FEF91EEC7
:100BA000A4E081509040A040E1F700C0000081E047
:100BB0000E94BD000E94B00288C087E38093950127
:100BC00080918E01882309F080C08091910181304D
:100BD00009F07BC00E946C021092910176C00E94C5
:100BE0006C0273C0C23349F1C33309F449C0C13345
:100BF00009F05DC081E00E94BD008CE291E00E949E
:100C0000AB0180EC0E94BD0082E691E00E94AB0146
:100C1000C49881E30E946007C49A8FEF91EEA4E02C
:100C200081509040A040E1F700C00000C49880913E
:100C300095010E946007C49A48C081E00E94BD00EF
:100C40008CE291E00E94AB0180EC0E94BD0085E641
:100C500091E00E94AB01C49882E30E946007C49AAD
:100C60008FEF91EEA4E081509040A040E1F700C0EA
:100C70000000C498809195010E946007C49A25C025
:100C8000C49880E30E946007C49A80918E018823F3
:100C900031F40E946C0285E08093930116C081308C
:100CA000A1F40E94B00285E0809393010EC081E020
:100CB0000E94BD0088EC90E00E94AB0180EC0E9495
:100CC000BD0083E391E00E94AB01CF91089588E1DC
:100CD00090E00E944900809390018DE190E00E9495
:100CE000490080938F0184E190E00E944900809345
:100CF0008C0185E190E00E94490080938B0186E1A0
:100D000090E00E94490080938A0187E190E00E9470
:100D100049008093890189E190E00E944900809315
:100D20009A018AE190E00E94490080939E018BE144
:100D300090E00E944900809399018CE190E00E942C
:100D4000490080939801A09AA29AA49A0E94170140
:100D50000E945A000E9457070E9468078EE190E0A7
:100D60000E94490080939D0100E011E00F2EF0E108
:100D7000EF2EF1E0FF2EF02D0F2EFBE1CF2EF1E054
:100D8000DF2EF02D0F2EF9E6AF2EF1E0BF2EF02D65
:100D90000F2EF3E09F2EF02D0F2EF9E76F2EF1E0CE
:100DA0007F2EF02DC4EDD0E080919D018330F9F4C9
:100DB000AC9A81E00E94BD00C8010E94AB0180ECAA
:100DC0000E94BD00C7010E94AB018FEF97EAA1E628
:100DD00081509040A040E1F700C00000AC9881E055
:100DE0000E94BD00C6010E94AB0110929D0180913E
:100DF00090018F3FE1F4809192018823C1F481E05A
:100E00000E94BD00C5010E94AB0181E08093920168
:100E10008093930110928E01809394018FEF93EC55
:100E2000A9E081509040A040E1F700C0000080910F
:100E30008F018F3FE1F4809192018230C1F4909252
:100E4000920181E00E94BD00C3010E94AB0181E0DC
:100E50008093930180938E01809394018FEF93ECA4
:100E6000A9E081509040A040E1F700C000008091CF
:100E700094018823C9F481E00E94BD00CE010E9444
:100E8000AB018FEF99E6A8E181509040A040E1F7D7
:100E900000C00000809194018F5F80939401C498FA
:100EA00080E30E946007C49A0E94D7027DCF87B377
:100EB000806B87BB80E58DB90895BE9A6E9A0895C0
:100EC0008FB9779BFECF0895779BFECF8FB10895A2
:100ED00085E883BF789408958DE883BF88EC8CBF44
:100EE00089B7826089BF78940895A1E21A2EAA1B5F
:100EF000BB1BFD010DC0AA1FBB1FEE1FFF1FA217CA
:100F0000B307E407F50720F0A21BB30BE40BF50BC6
:100F1000661F771F881F991F1A9469F7609570954F
:100F2000809590959B01AC01BD01CF010895F89487
:020F3000FFCFF1
:100F32003738394E3435364E3132334E4E304E4ECE
:100F4200313E526F6F6D3100323E526F6F6D320023
:100F5200333E526F6F6D3300343E4D6F7265003415
:100F62003E526F6F6D3400353E545600363E434F4D
:100F72004E4400373E6261636B0041646D696E20CE
:100F820070617373776F7264004775657374207054
:100F9200617373776F72640077726F6E6720656E2C
:100FA20074727900303E61646D696E26313E6775F8
:100FB200657374200057726F6E6720706173737768
:100FC2006F726400205472696573206C65667400E8
:100FD200796F752061726520626C6F636B65640066
:100FE200666F722032302073656300456E746572DD
:100FF200207269676874207061737300526F6F6D3D
:10100200203100313E6F6E20323E6F666620333EE5
:101012006261636B00526F6F6D203200526F6F6DB1
:10102200203300526F6F6D203400545600434F4EF0
:1010320044006F6E006F666600456E746572206EC6
:1010420065772061646D696E00456E746572206E0D
:0E105200657720677565737400040302010062
:00000001FF
