:100000000C942A000C9447000C9447000C94470071
:100010000C9447000C9447000C9447000C94470044
:100020000C9447000C9447000C9447000C94470034
:100030000C9447000C9447000C9447000C94470024
:100040000C9447000C9447000C9447000C94470014
:100050000C94470011241FBECFE5D8E0DEBFCDBF12
:1000600010E0A0E6B0E0EAEBF4E002C005900D92EB
:10007000A036B107D9F710E0A0E6B0E001C01D92AC
:10008000A036B107E1F70E94C5010C945B020C9405
:1000900000003E9A379A309A319A329A0895369AE9
:1000A00086B186FDFDCF84B195B10895D998982F7A
:1000B00092959F7090FF02C0DB9A01C0DB98982F49
:1000C00092959695977090FF02C0DC9A01C0DC98DB
:1000D000982F929596959695937090FF02C0DD9A11
:1000E00001C0DD98882314F4DE9A01C0DE98DA9A04
:1000F000EFE9FFE03197F1F700C00000DA98EFE98F
:10010000FFE03197F1F700C0000080FF02C0DB9AEA
:1001100001C0DB98982F969590FF02C0DC9A01C031
:10012000DC98982F9695969590FF02C0DD9A01C0B5
:10013000DD9886958695869580FF02C0DE9A01C07F
:10014000DE98DA9A8FE99FE00197F1F700C000008E
:10015000DA98EFE9FFE03197F1F700C00000089569
:100160008AB38E678ABB83E00E9456008FE79EE3C6
:100170000197F1F700C0000083E00E945600AFE74E
:10018000BEE31197F1F700C0000083E00E94560023
:100190008FE79EE30197F1F700C0000082E00E9424
:1001A000560088E20E94560088E00E94560081E0D6
:1001B0000E94560086E00E9456008FEF99EFA0E063
:1001C00081509040A040E1F700C000008CE00E9408
:1001D00056000895D99A982F92959F7090FF02C06B
:1001E000DB9A01C0DB98982F92959695977090FFB7
:1001F00002C0DC9A01C0DC98982F9295969596954E
:10020000937090FF02C0DD9A01C0DD98882314F43A
:10021000DE9A01C0DE98DA9AEFE9FFE03197F1F754
:1002200000C00000DA98EFE9FFE03197F1F700C075
:10023000000080FF02C0DB9A01C0DB98982F9695E2
:1002400090FF02C0DC9A01C0DC98982F9695969595
:1002500090FF02C0DD9A01C0DD988695869586954F
:1002600080FF02C0DE9A01C0DE98DA9A8FE99FE033
:100270000197F1F700C00000DA98EFE9FFE031974D
:10028000F1F700C0000008950F931F93CF938C01E6
:10029000FC018081882351F0C0E00E94EA00CF5F1A
:1002A000F801EC0FF11D80818823B9F7CF911F91E0
:1002B0000F9108958F929F92AF92BF92EF92FF920B
:1002C0001F93CF93DF93CDB7DEB72A970FB6F8947D
:1002D000DEBF0FBECDBFDC01CB01AE014F5F5F4F74
:1002E0002AE0FA0111922A95E9F70097A105B105D4
:1002F00021F480E30E94EA0038C010E00F2EFAE0FB
:100300008F2EF0E09F2EF0E0AF2EF0E0BF2EF02D0C
:10031000E12EFF24E7FCF09421E030E02C0F3D1F9C
:10032000E20EF31EBC01CD01A50194010E94390229
:10033000605DF7016083822F932FA42FB52F1F5F7D
:100340000097A105B10521F711507AF0E12FFF27A1
:10035000E7FDF09521E030E02C0F3D1FE20FF31F89
:1003600080810E94EA00115088F72A960FB6F8940F
:10037000DEBF0FBECDBFDF91CF911F91FF90EF90F9
:10038000BF90AF909F908F9008950E94B0000E9400
:100390002E02A09AA19AA29AA39AA49AA59A0E9420
:1003A0003502C82F0E94EA00C33321F1C43330F470
:1003B000C13361F0C23309F047C012C0C53371F1D7
:1003C000C53310F1C63309F03FC033C00E94350277
:1003D000813311F4A89AE3CF823309F7A898DFCFCD
:1003E0000E943502813311F4A99AD9CF8233B9F62C
:1003F000A998D5CF0E943502813311F4AA9ACFCFA4
:10040000823369F6AA98CBCF0E943502813311F46A
:10041000AB9AC5CF823319F6AB98C1CF0E94350293
:10042000813311F4AC9ABBCF823309F0B8CFAC98CA
:10043000B6CF0E943502813311F4AD9AB0CF82332A
:1004400009F0ADCFAD98ABCF8EE60E943102A7CFB9
:1004500087B3806B87BB80E58DB90895BE9A6E9A8D
:1004600008958FB9779BFECF0895779BFECF8FB10C
:100470000895A1E21A2EAA1BBB1BFD010DC0AA1FE5
:10048000BB1FEE1FFF1FA217B307E407F50720F0FD
:10049000A21BB30BE40BF50B661F771F881F991F78
:1004A0001A9469F760957095809590959B01AC01C1
:0A04B000BD01CF010895F894FFCFBD
:00000001FF
