S0180000536D6172745F686F6D655F736C6176652E7372656383
S11300000C942A000C9447000C9447000C9447006D
S11300100C9447000C9447000C9447000C94470040
S11300200C9447000C9447000C9447000C94470030
S11300300C9447000C9447000C9447000C94470020
S11300400C9447000C9447000C9447000C94470010
S11300500C94470011241FBECFE5D8E0DEBFCDBF0E
S113006010E0A0E6B0E0EAECF4E002C005900D92E6
S1130070A036B107D9F710E0A0E6B0E001C01D92A8
S1130080A036B107E1F70E94C5010C9463020C94F9
S113009000003E9A379A309A319A329A0895369AE5
S11300A086B186FDFDCF84B195B10895D998982F76
S11300B092959F7090FF02C0DB9A01C0DB98982F45
S11300C092959695977090FF02C0DC9A01C0DC98D7
S11300D0982F929596959695937090FF02C0DD9A0D
S11300E001C0DD98882314F4DE9A01C0DE98DA9A00
S11300F0EFE9FFE03197F1F700C00000DA98EFE98B
S1130100FFE03197F1F700C0000080FF02C0DB9AE6
S113011001C0DB98982F969590FF02C0DC9A01C02D
S1130120DC98982F9695969590FF02C0DD9A01C0B1
S1130130DD9886958695869580FF02C0DE9A01C07B
S1130140DE98DA9A8FE99FE00197F1F700C000008A
S1130150DA98EFE9FFE03197F1F700C00000089565
S11301608AB38E678ABB83E00E9456008FE79EE3C2
S11301700197F1F700C0000083E00E945600AFE74A
S1130180BEE31197F1F700C0000083E00E9456001F
S11301908FE79EE30197F1F700C0000082E00E9420
S11301A0560088E20E94560088E00E94560081E0D2
S11301B00E94560086E00E9456008FEF99EFA0E05F
S11301C081509040A040E1F700C000008CE00E9404
S11301D056000895D99A982F92959F7090FF02C067
S11301E0DB9A01C0DB98982F92959695977090FFB3
S11301F002C0DC9A01C0DC98982F9295969596954A
S1130200937090FF02C0DD9A01C0DD98882314F436
S1130210DE9A01C0DE98DA9AEFE9FFE03197F1F750
S113022000C00000DA98EFE9FFE03197F1F700C071
S1130230000080FF02C0DB9A01C0DB98982F9695DE
S113024090FF02C0DC9A01C0DC98982F9695969591
S113025090FF02C0DD9A01C0DD988695869586954B
S113026080FF02C0DE9A01C0DE98DA9A8FE99FE02F
S11302700197F1F700C00000DA98EFE9FFE0319749
S1130280F1F700C0000008950F931F93CF938C01E2
S1130290FC018081882351F0C0E00E94EA00CF5F16
S11302A0F801EC0FF11D80818823B9F7CF911F91DC
S11302B00F9108958F929F92AF92BF92EF92FF9207
S11302C01F93CF93DF93CDB7DEB72A970FB6F89479
S11302D0DEBF0FBECDBFDC01CB01AE014F5F5F4F70
S11302E02AE0FA0111922A95E9F70097A105B105D0
S11302F021F480E30E94EA0038C010E00F2EFAE0F7
S11303008F2EF0E09F2EF0E0AF2EF0E0BF2EF02D08
S1130310E12EFF24E7FCF09421E030E02C0F3D1F98
S1130320E20EF31EBC01CD01A50194010E9441021D
S1130330605DF7016083822F932FA42FB52F1F5F79
S11303400097A105B10521F711507AF0E12FFF279D
S1130350E7FDF09521E030E02C0F3D1FE20FF31F85
S113036080810E94EA00115088F72A960FB6F8940B
S1130370DEBF0FBECDBFDF91CF911F91FF90EF90F5
S1130380BF90AF909F908F9008950E94B0000E94FC
S11303903602A09AA19AA29AA39AA49AA59AEE24A4
S11303A06894E4F8FF246894F3F800E211E0D2E0E2
S11303B0DD246894D2F80E943D02C82F0E94EA000E
S11303C0C33301F1C43330F4C13359F0C23309F0FB
S11303D043C00FC0C53359F1C533F0F0C633E1F55E
S11303E030C085B3812785BB85B381700E943902F3
S11303F0E2CF85B38D2785BB85B3869581700E9436
S11304003902D9CF85B38D2585BB85B3869586956D
S113041081700E943902CFCF85B38F2585BB85B308
S113042086958695869581700E943902C4CF85B3DE
S11304308E2585BB85B382958F7081700E943902A9
S1130440BACF85B3802785BB85B38295869587709F
S113045081700E943902AFCF8EE60E943902ABCF81
S113046087B3806B87BB80E58DB90895BE9A6E9A79
S113047008958FB9779BFECF0895779BFECF8FB1F8
S11304800895A1E21A2EAA1BBB1BFD010DC0AA1FD1
S1130490BB1FEE1FFF1FA217B307E407F50720F0E9
S11304A0A21BB30BE40BF50B661F771F881F991F64
S11304B01A9469F760957095809590959B01AC01AD
S10D04C0BD01CF010895F894FFCFA9
S9030000FC
