:100000000C942A000C9447000C9447000C94470071
:100010000C9447000C9447000C9447000C94470044
:100020000C9447000C9447000C9447000C94D600A5
:100030000C9447000C9447000C9447000C94470024
:100040000C9447000C9447000C9447000C94470014
:100050000C94470011241FBECFE5D8E0DEBFCDBF12
:1000600010E0A0E6B0E0E2EDF4E002C005900D92F1
:10007000A036B107D9F710E0A0E6B0E001C01D92AC
:10008000A436B107E1F70E9456000C9467020C9465
:1000900000003E9A379A309A319A329A0895369AE9
:1000A00086B186FDFDCF84B195B108950E944900C7
:1000B0000E942F010E943A01A09AA19AA29AA39AA3
:1000C000A49AA59AC1E00E943601833311F18433CA
:1000D00028F4813351F08233B1F711C0853369F1CF
:1000E000853308F1863379F733C00E9436018133B6
:1000F00011F4A89AE8CF823331F7A898E4CF0E9490
:100100003601813311F4A99ADECF8233E1F6A99842
:10011000DACF0E943601813311F4AA9AD4CF823308
:1001200091F6AA98D0CF0E943601813311F4AB9A90
:10013000CACF823341F6AB98C6CF0E9436018133D5
:1001400011F4AC9AC0CF823309F0BDCFAC98BBCFCD
:100150000E944F00BC0180E090E00E94760120E008
:1001600030E04AEF5EE30E94DC010E944A01DC01BC
:10017000CB0190936200809361000E94360181332D
:1001800071F480916100909162008931910518F4B9
:10019000C093600098CFAD9AC093600094CF823333
:1001A00009F091CFAD98109260008DCF1F920F9201
:1001B0000FB60F9211242F933F934F935F936F933A
:1001C0007F938F939F93AF93BF93EF93FF93809110
:1001D00063008F5F809363000E944F00BC0180E04A
:1001E00090E00E94760120E030E04AEF5EE30E945A
:1001F000DC010E944A01DC01CB019C01909362006A
:100200008093610080916300843191F4809160005B
:10021000813071F42931310540F0AD9A10926300BC
:1002200007C0AD981092630003C02A313105C8F3AE
:10023000FF91EF91BF91AF919F918F917F916F91BE
:100240005F914F913F912F910F900FBE0F901F9094
:10025000189587B3806B87BB80E58DB90895BE9AEA
:100260006E9A08958FB9779BFECF0895779BFECF46
:100270008FB1089585E883BF89B7816089BF78947D
:1002800008958DE883BF88EC8CBF89B7826089BFF1
:100290007894089570D088F09F5790F0B92F9927DF
:1002A000B751A0F0D1F0660F771F881F991F1AF081
:1002B000BA95C9F712C0B13081F077D0B1E0089596
:1002C00074C0672F782F8827B85F39F0B93FCCF317
:1002D000869577956795B395D9F73EF49095809577
:1002E000709561957F4F8F4F9F4F0895E89409C097
:1002F00097FB3EF490958095709561957F4F8F4F59
:100300009F4F9923A9F0F92F96E9BB279395F6956E
:10031000879577956795B795F111F8CFFAF4BB0FEC
:1003200011F460FF1BC06F5F7F4F8F4F9F4F16C050
:10033000882311F096E911C0772321F09EE8872FDA
:10034000762F05C0662371F096E8862F70E060E096
:100350002AF09A95660F771F881FDAF7880F96950F
:10036000879597F9089557FD9058440F551F59F0F8
:100370005F3F71F04795880F97FB991F61F09F3F92
:1003800079F087950895121613061406551FF2CFBB
:100390004695F1DF08C0161617061806991FF1CF0B
:1003A00086957105610508940895E894BB27662732
:1003B0007727CB0197F908950BD078C069D028F042
:1003C0006ED018F0952309F05AC05FC01124EECF0B
:1003D000CADFA0F3959FD1F3950F50E0551F629FA0
:1003E000F001729FBB27F00DB11D639FAA27F00D8E
:1003F000B11DAA1F649F6627B00DA11D661F829FB5
:100400002227B00DA11D621F739FB00DA11D621F99
:10041000839FA00D611D221F749F3327A00D611DB6
:10042000231F849F600D211D822F762F6A2F112498
:100430009F5750408AF0E1F088234AF0EE0FFF1FEB
:10044000BB1F661F771F881F91505040A9F79E3F22
:10045000510570F014C0AACF5F3FECF3983EDCF377
:10046000869577956795B795F795E7959F5FC1F75F
:10047000FE2B880F911D9695879597F9089597F90A
:100480009F6780E870E060E008959FEF80EC08953A
:1004900000240A9416161706180609060895002463
:1004A0000A9412161306140605060895092E0394DD
:1004B000000C11F4882352F0BB0F40F4BF2B11F451
:1004C00060FF04C06F5F7F4F8F4F9F4F0895F89478
:0204D000FFCF5C
:00000001FF
